{
  "contractName": "blood_test",
  "abi": [
    {
      "constant": false,
      "inputs": [
        {
          "name": "bloodResults",
          "type": "uint256[13]"
        }
      ],
      "name": "setBloodResult",
      "outputs": [],
      "payable": false,
      "stateMutability": "nonpayable",
      "type": "function",
      "signature": "0x64fabf10"
    },
    {
      "constant": true,
      "inputs": [],
      "name": "getBloodResult",
      "outputs": [
        {
          "name": "",
          "type": "uint256[13]"
        }
      ],
      "payable": false,
      "stateMutability": "view",
      "type": "function",
      "signature": "0x914e3f1f"
    }
  ],
  "bytecode": "0x608060405234801561001057600080fd5b506102a5806100206000396000f3fe60806040526004361061004c576000357c0100000000000000000000000000000000000000000000000000000000900463ffffffff16806364fabf1014610051578063914e3f1f146100c5575b600080fd5b34801561005d57600080fd5b506100c360048036036101a081101561007557600080fd5b81019080806101a00190600d806020026040519081016040528092919082600d60200280828437600081840152601f19601f8201169050808301925050505050509192919290505050610118565b005b3480156100d157600080fd5b506100da610169565b6040518082600d60200280838360005b838110156101055780820151818401526020810190506100ea565b5050505090500191505060405180910390f35b806000803373ffffffffffffffffffffffffffffffffffffffff1673ffffffffffffffffffffffffffffffffffffffff16815260200190815260200160002090600d6101659291906101f0565b5050565b610171610230565b6000803373ffffffffffffffffffffffffffffffffffffffff1673ffffffffffffffffffffffffffffffffffffffff168152602001908152602001600020600d806020026040519081016040528092919082600d80156101e6576020028201915b8154815260200190600101908083116101d2575b5050505050905090565b82600d810192821561021f579160200282015b8281111561021e578251825591602001919060010190610203565b5b50905061022c9190610254565b5090565b6101a060405190810160405280600d90602082028038833980820191505090505090565b61027691905b8082111561027257600081600090555060010161025a565b5090565b9056fea165627a7a72305820228b48e6a8fb8e54c8fb27b704bb1591b2c71acf3aa5595082aa330e292d4b840029",
  "source": "pragma solidity ^0.5;\n\ncontract blood_test{\n\n    /*\n\n    This contract is a test for storing blood test data inside\n    the contract by mapping the address to the data.\n\n    Blood Array layout:\n        Blood[0] = hemoglobin   // 115 - 165\n        Blood[1] = whiteBlood   // 4 - 11\n        Blood[2] = platelet     // 150 - 450\n        Blood[3] = redBlood     // 38 - 58      (divid by 10)\n        Blood[4] = haematocrit  // 37 - 47      (divide by 100)\n        Blood[5] = MCV          // 76 - 98\n        Blood[6] = MCH          // 27 - 32\n        Blood[7] = MCHC         // 300 - 360\n        Blood[8] = neutrophil   // 2 - 7\n        Blood[9] = lymphocyte   // 1 - 4\n        Blood[10] = monocyte    // 2 - 8        (divide by 10)\n        Blood[11] = eosinophil  // 0 - 4        (divide by 10)\n        Blood[12] = basophil    // 0 - 1        (divide by 10)\n    */\n\n    mapping(address => uint[13]) private Blood;\n\n    function setBloodResult (uint[13] memory bloodResults) public {\n        Blood[msg.sender] = bloodResults;\n    }\n\n    function getBloodResult () public view returns (uint[13] memory){\n        return Blood[msg.sender];\n    }\n\n}\n",
  "sourcePath": "/Users/jordan/Documents/Development/Ethereum-Blood-Test/Truffle-Contract/contracts/blood_test.sol",
  "compiler": {
    "name": "solc",
    "version": "0.5.0+commit.1d4f565a.Emscripten.clang"
  },
  "schemaVersion": "3.0.2",
  "updatedAt": "2019-02-14T13:30:18.131Z",
  "devdoc": {
    "methods": {}
  },
  "userdoc": {
    "methods": {}
  }
}