{
  "contractName": "CommentsContract",
  "abi": [
    {
      "constant": false,
      "inputs": [
        {
          "name": "patientAddress",
          "type": "address"
        },
        {
          "name": "comment",
          "type": "string"
        }
      ],
      "name": "addComment",
      "outputs": [],
      "payable": false,
      "stateMutability": "nonpayable",
      "type": "function"
    },
    {
      "constant": true,
      "inputs": [
        {
          "name": "patientAddress",
          "type": "address"
        }
      ],
      "name": "getComment",
      "outputs": [
        {
          "components": [
            {
              "name": "doctorAddress",
              "type": "address"
            },
            {
              "name": "patientAddress",
              "type": "address"
            },
            {
              "name": "comment",
              "type": "string"
            },
            {
              "name": "timestamp",
              "type": "uint256"
            }
          ],
          "name": "",
          "type": "tuple[]"
        }
      ],
      "payable": false,
      "stateMutability": "view",
      "type": "function"
    }
  ],
  "bytecode": "0x608060405234801561001057600080fd5b506108b8806100206000396000f3fe60806040526004361061004c576000357c0100000000000000000000000000000000000000000000000000000000900463ffffffff168063e2005b9814610051578063f6bb0cf11461007a575b600080fd5b34801561005d57600080fd5b50610078600480360361007391908101906105b9565b6100b7565b005b34801561008657600080fd5b506100a1600480360361009c9190810190610590565b610236565b6040516100ae9190610732565b60405180910390f35b6100bf61042c565b6080604051908101604052803373ffffffffffffffffffffffffffffffffffffffff1681526020018473ffffffffffffffffffffffffffffffffffffffff1681526020018381526020014281525090506000808473ffffffffffffffffffffffffffffffffffffffff1673ffffffffffffffffffffffffffffffffffffffff168152602001908152602001600020819080600181540180825580915050906001820390600052602060002090600402016000909192909190915060008201518160000160006101000a81548173ffffffffffffffffffffffffffffffffffffffff021916908373ffffffffffffffffffffffffffffffffffffffff16021790555060208201518160010160006101000a81548173ffffffffffffffffffffffffffffffffffffffff021916908373ffffffffffffffffffffffffffffffffffffffff1602179055506040820151816002019080519060200190610223929190610481565b5060608201518160030155505050505050565b60606000808373ffffffffffffffffffffffffffffffffffffffff1673ffffffffffffffffffffffffffffffffffffffff168152602001908152602001600020805480602002602001604051908101604052809291908181526020016000905b828210156104215783829060005260206000209060040201608060405190810160405290816000820160009054906101000a900473ffffffffffffffffffffffffffffffffffffffff1673ffffffffffffffffffffffffffffffffffffffff1673ffffffffffffffffffffffffffffffffffffffff1681526020016001820160009054906101000a900473ffffffffffffffffffffffffffffffffffffffff1673ffffffffffffffffffffffffffffffffffffffff1673ffffffffffffffffffffffffffffffffffffffff168152602001600282018054600181600116156101000203166002900480601f0160208091040260200160405190810160405280929190818152602001828054600181600116156101000203166002900480156103ff5780601f106103d4576101008083540402835291602001916103ff565b820191906000526020600020905b8154815290600101906020018083116103e257829003601f168201915b5050505050815260200160038201548152505081526020019060010190610296565b505050509050919050565b608060405190810160405280600073ffffffffffffffffffffffffffffffffffffffff168152602001600073ffffffffffffffffffffffffffffffffffffffff16815260200160608152602001600081525090565b828054600181600116156101000203166002900490600052602060002090601f016020900481019282601f106104c257805160ff19168380011785556104f0565b828001600101855582156104f0579182015b828111156104ef5782518255916020019190600101906104d4565b5b5090506104fd9190610501565b5090565b61052391905b8082111561051f576000816000905550600101610507565b5090565b90565b60006105328235610819565b905092915050565b600082601f830112151561054d57600080fd5b813561056061055b82610781565b610754565b9150808252602083016020830185838301111561057c57600080fd5b61058783828461082b565b50505092915050565b6000602082840312156105a257600080fd5b60006105b084828501610526565b91505092915050565b600080604083850312156105cc57600080fd5b60006105da85828601610526565b925050602083013567ffffffffffffffff8111156105f757600080fd5b6106038582860161053a565b9150509250929050565b610616816107dd565b82525050565b6000610627826107ba565b80845260208401935083602082028501610640856107ad565b60005b8481101561067957838303885261065b8383516106c0565b9250610666826107d0565b9150602088019750600181019050610643565b508196508694505050505092915050565b6000610695826107c5565b8084526106a981602086016020860161083a565b6106b28161086d565b602085010191505092915050565b60006080830160008301516106d8600086018261060d565b5060208301516106eb602086018261060d565b5060408301518482036040860152610703828261068a565b91505060608301516107186060860182610723565b508091505092915050565b61072c8161080f565b82525050565b6000602082019050818103600083015261074c818461061c565b905092915050565b6000604051905081810181811067ffffffffffffffff8211171561077757600080fd5b8060405250919050565b600067ffffffffffffffff82111561079857600080fd5b601f19601f8301169050602081019050919050565b6000602082019050919050565b600081519050919050565b600081519050919050565b6000602082019050919050565b60006107e8826107ef565b9050919050565b600073ffffffffffffffffffffffffffffffffffffffff82169050919050565b6000819050919050565b6000610824826107ef565b9050919050565b82818337600083830152505050565b60005b8381101561085857808201518184015260208101905061083d565b83811115610867576000848401525b50505050565b6000601f19601f830116905091905056fea265627a7a72305820ab1ebc2ae5b060d3be07eb14a7735b17c64c154b93f1bdbda1860e54327ab5326c6578706572696d656e74616cf50037",
  "source": "pragma solidity ^0.5;\npragma experimental ABIEncoderV2;\n\ncontract CommentsContract{\n\n    struct Comments{\n        address doctorAddress;\n        address patientAddress;\n        string comment;\n        uint timestamp;\n    }\n\n    mapping (address => Comments[]) doctorsComments;\n\n    //Adds a new comment to the contract\n    function addComment(address patientAddress, string memory comment) public {\n        Comments memory newComment = Comments(msg.sender, patientAddress, comment, now);\n\n        doctorsComments[patientAddress].push(newComment);\n    }\n    \n    //Gets all of the comments for a patient\n    function getComment(address patientAddress) public view returns(Comments[] memory){\n        return doctorsComments[patientAddress];\n    }\n}",
  "sourcePath": "/Users/jordan/Documents/Development/Projects/Ethereum-Blood-Test/Truffle-Contract/contracts/Comments.sol",
  "compiler": {
    "name": "solc",
    "version": "0.5.0+commit.1d4f565a.Emscripten.clang"
  },
  "schemaVersion": "3.0.3",
  "updatedAt": "2019-05-01T09:51:17.292Z",
  "devdoc": {
    "methods": {}
  },
  "userdoc": {
    "methods": {}
  }
}