{
  "contractName": "ethHealthRecords",
  "abi": [
    {
      "inputs": [],
      "payable": false,
      "stateMutability": "nonpayable",
      "type": "constructor"
    },
    {
      "constant": false,
      "inputs": [
        {
          "name": "patientAddress",
          "type": "address"
        },
        {
          "name": "gender",
          "type": "string"
        },
        {
          "name": "age",
          "type": "uint8"
        },
        {
          "name": "height",
          "type": "uint16"
        },
        {
          "name": "weight",
          "type": "uint16"
        },
        {
          "name": "bloodType",
          "type": "string"
        }
      ],
      "name": "addPatient",
      "outputs": [],
      "payable": false,
      "stateMutability": "nonpayable",
      "type": "function"
    },
    {
      "constant": false,
      "inputs": [
        {
          "name": "patientAddress",
          "type": "address"
        },
        {
          "name": "bloodResults",
          "type": "uint8[13]"
        }
      ],
      "name": "addPatientBloodResults",
      "outputs": [],
      "payable": false,
      "stateMutability": "nonpayable",
      "type": "function"
    },
    {
      "constant": false,
      "inputs": [
        {
          "name": "patientAddress",
          "type": "address"
        },
        {
          "name": "newAge",
          "type": "uint8"
        }
      ],
      "name": "changeAge",
      "outputs": [],
      "payable": false,
      "stateMutability": "nonpayable",
      "type": "function"
    },
    {
      "constant": false,
      "inputs": [
        {
          "name": "patientAddress",
          "type": "address"
        },
        {
          "name": "newHeight",
          "type": "uint16"
        }
      ],
      "name": "changeHeight",
      "outputs": [],
      "payable": false,
      "stateMutability": "nonpayable",
      "type": "function"
    },
    {
      "constant": false,
      "inputs": [
        {
          "name": "patientAddress",
          "type": "address"
        },
        {
          "name": "newWeight",
          "type": "uint16"
        }
      ],
      "name": "changeWeight",
      "outputs": [],
      "payable": false,
      "stateMutability": "nonpayable",
      "type": "function"
    },
    {
      "constant": true,
      "inputs": [
        {
          "name": "patientAddress",
          "type": "address"
        }
      ],
      "name": "isPatient",
      "outputs": [
        {
          "name": "",
          "type": "bool"
        }
      ],
      "payable": false,
      "stateMutability": "view",
      "type": "function"
    },
    {
      "constant": true,
      "inputs": [
        {
          "name": "patientAddress",
          "type": "address"
        }
      ],
      "name": "getPatientInfomation",
      "outputs": [
        {
          "components": [
            {
              "name": "gender",
              "type": "string"
            },
            {
              "name": "age",
              "type": "uint8"
            },
            {
              "name": "height",
              "type": "uint16"
            },
            {
              "name": "weight",
              "type": "uint16"
            },
            {
              "name": "bloodType",
              "type": "string"
            },
            {
              "name": "isPatient",
              "type": "bool"
            },
            {
              "name": "timestamp",
              "type": "uint256"
            }
          ],
          "name": "",
          "type": "tuple"
        }
      ],
      "payable": false,
      "stateMutability": "view",
      "type": "function"
    },
    {
      "constant": true,
      "inputs": [
        {
          "name": "patientAddress",
          "type": "address"
        },
        {
          "name": "index",
          "type": "uint256"
        }
      ],
      "name": "getPatientsBloodResults",
      "outputs": [
        {
          "name": "",
          "type": "uint8[13]"
        }
      ],
      "payable": false,
      "stateMutability": "view",
      "type": "function"
    },
    {
      "constant": true,
      "inputs": [
        {
          "name": "patientAddress",
          "type": "address"
        }
      ],
      "name": "getPatientsBloodResultsLength",
      "outputs": [
        {
          "name": "",
          "type": "uint256"
        }
      ],
      "payable": false,
      "stateMutability": "view",
      "type": "function"
    },
    {
      "constant": false,
      "inputs": [
        {
          "name": "adminAddress",
          "type": "address"
        }
      ],
      "name": "transferAdmin",
      "outputs": [],
      "payable": false,
      "stateMutability": "nonpayable",
      "type": "function"
    },
    {
      "constant": false,
      "inputs": [
        {
          "name": "adminAddress",
          "type": "address"
        }
      ],
      "name": "addAdmin",
      "outputs": [],
      "payable": false,
      "stateMutability": "nonpayable",
      "type": "function"
    },
    {
      "constant": false,
      "inputs": [
        {
          "name": "adminAddress",
          "type": "address"
        }
      ],
      "name": "removeAdmin",
      "outputs": [],
      "payable": false,
      "stateMutability": "nonpayable",
      "type": "function"
    },
    {
      "constant": false,
      "inputs": [
        {
          "name": "doctorAddress",
          "type": "address"
        }
      ],
      "name": "addDoctor",
      "outputs": [],
      "payable": false,
      "stateMutability": "nonpayable",
      "type": "function"
    },
    {
      "constant": false,
      "inputs": [
        {
          "name": "doctorAddress",
          "type": "address"
        }
      ],
      "name": "removeDoctor",
      "outputs": [],
      "payable": false,
      "stateMutability": "nonpayable",
      "type": "function"
    },
    {
      "constant": true,
      "inputs": [],
      "name": "getPrivileges",
      "outputs": [
        {
          "name": "",
          "type": "string"
        }
      ],
      "payable": false,
      "stateMutability": "view",
      "type": "function"
    },
    {
      "constant": false,
      "inputs": [
        {
          "name": "patientAddress",
          "type": "address"
        },
        {
          "name": "comment",
          "type": "string"
        }
      ],
      "name": "addComment",
      "outputs": [],
      "payable": false,
      "stateMutability": "nonpayable",
      "type": "function"
    },
    {
      "constant": true,
      "inputs": [
        {
          "name": "patientAddress",
          "type": "address"
        }
      ],
      "name": "getComment",
      "outputs": [
        {
          "components": [
            {
              "name": "doctorAddress",
              "type": "address"
            },
            {
              "name": "patientAddress",
              "type": "address"
            },
            {
              "name": "comment",
              "type": "string"
            },
            {
              "name": "timestamp",
              "type": "uint256"
            }
          ],
          "name": "",
          "type": "tuple[]"
        }
      ],
      "payable": false,
      "stateMutability": "view",
      "type": "function"
    }
  ],
  "bytecode": "0x608060405234801561001057600080fd5b5060018060003373ffffffffffffffffffffffffffffffffffffffff1673ffffffffffffffffffffffffffffffffffffffff16815260200190815260200160002060006101000a81548160ff0219169083151502179055506123ad806100776000396000f3fe6080604052600436106100f1576000357c0100000000000000000000000000000000000000000000000000000000900463ffffffff1680631785f53c146100f657806332dfda591461011f578063357b39e11461015c57806335c8fdc3146101875780634780468f146101b057806349e51581146101d9578063704802751461020257806372f8ae9c1461022b57806375829def146102685780638f51c43c146102915780638f9c79ed146102ba57806398fc90e9146102f7578063ab991cac14610320578063ae9b235b14610349578063e2005b9814610386578063e58420ea146103af578063f6bb0cf1146103d8575b600080fd5b34801561010257600080fd5b5061011d60048036036101189190810190611bab565b610415565b005b34801561012b57600080fd5b5061014660048036036101419190810190611d5a565b610505565b60405161015391906120d8565b60405180910390f35b34801561016857600080fd5b506101716105d4565b60405161017e919061210f565b60405180910390f35b34801561019357600080fd5b506101ae60048036036101a99190810190611d96565b6107c1565b005b3480156101bc57600080fd5b506101d760048036036101d29190810190611bab565b6108fb565b005b3480156101e557600080fd5b5061020060048036036101fb9190810190611bd4565b6109ea565b005b34801561020e57600080fd5b5061022960048036036102249190810190611bab565b610b26565b005b34801561023757600080fd5b50610252600480360361024d9190810190611bab565b610c15565b60405161025f9190612193565b60405180910390f35b34801561027457600080fd5b5061028f600480360361028a9190810190611bab565b610c61565b005b34801561029d57600080fd5b506102b860048036036102b39190810190611c65565b610da8565b005b3480156102c657600080fd5b506102e160048036036102dc9190810190611bab565b610f93565b6040516102ee91906120f4565b60405180910390f35b34801561030357600080fd5b5061031e60048036036103199190810190611bab565b610fec565b005b34801561032c57600080fd5b5061034760048036036103429190810190611d1e565b6110db565b005b34801561035557600080fd5b50610370600480360361036b9190810190611bab565b6111d0565b60405161037d9190612171565b60405180910390f35b34801561039257600080fd5b506103ad60048036036103a89190810190611c11565b6113f0565b005b3480156103bb57600080fd5b506103d660048036036103d19190810190611d1e565b611570565b005b3480156103e457600080fd5b506103ff60048036036103fa9190810190611bab565b611665565b60405161040c91906120b6565b60405180910390f35b60011515600160003373ffffffffffffffffffffffffffffffffffffffff1673ffffffffffffffffffffffffffffffffffffffff16815260200190815260200160002060009054906101000a900460ff1615151415156104aa576040517f08c379a00000000000000000000000000000000000000000000000000000000081526004016104a190612151565b60405180910390fd5b6000600160008373ffffffffffffffffffffffffffffffffffffffff1673ffffffffffffffffffffffffffffffffffffffff16815260200190815260200160002060006101000a81548160ff02191690831515021790555050565b61050d61185c565b600360008473ffffffffffffffffffffffffffffffffffffffff1673ffffffffffffffffffffffffffffffffffffffff1681526020019081526020016000208281548110151561055957fe5b9060005260206000209060020201600001600d806020026040519081016040528092919082600d80156105c7576020028201916000905b82829054906101000a900460ff1660ff16815260200190600101906020826000010492830192600103820291508084116105905790505b5050505050905092915050565b6060600160003373ffffffffffffffffffffffffffffffffffffffff1673ffffffffffffffffffffffffffffffffffffffff16815260200190815260200160002060009054906101000a900460ff1615610665576040805190810160405280600581526020017f41646d696e00000000000000000000000000000000000000000000000000000081525090506107be565b6000803373ffffffffffffffffffffffffffffffffffffffff1673ffffffffffffffffffffffffffffffffffffffff16815260200190815260200160002060009054906101000a900460ff16156106f3576040805190810160405280600681526020017f446f63746f72000000000000000000000000000000000000000000000000000081525090506107be565b600260003373ffffffffffffffffffffffffffffffffffffffff1673ffffffffffffffffffffffffffffffffffffffff16815260200190815260200160002060030160009054906101000a900460ff1615610785576040805190810160405280600781526020017f50617469656e740000000000000000000000000000000000000000000000000081525090506107be565b6040805190810160405280600781526020017f4e6f7468696e670000000000000000000000000000000000000000000000000081525090505b90565b600115156000803373ffffffffffffffffffffffffffffffffffffffff1673ffffffffffffffffffffffffffffffffffffffff16815260200190815260200160002060009054906101000a900460ff161515141515610855576040517f08c379a000000000000000000000000000000000000000000000000000000000815260040161084c90612131565b60405180910390fd5b80600260008473ffffffffffffffffffffffffffffffffffffffff1673ffffffffffffffffffffffffffffffffffffffff16815260200190815260200160002060010160006101000a81548160ff021916908360ff16021790555042600260008473ffffffffffffffffffffffffffffffffffffffff1673ffffffffffffffffffffffffffffffffffffffff168152602001908152602001600020600401819055505050565b60011515600160003373ffffffffffffffffffffffffffffffffffffffff1673ffffffffffffffffffffffffffffffffffffffff16815260200190815260200160002060009054906101000a900460ff161515141515610990576040517f08c379a000000000000000000000000000000000000000000000000000000000815260040161098790612151565b60405180910390fd5b60016000808373ffffffffffffffffffffffffffffffffffffffff1673ffffffffffffffffffffffffffffffffffffffff16815260200190815260200160002060006101000a81548160ff02191690831515021790555050565b600115156000803373ffffffffffffffffffffffffffffffffffffffff1673ffffffffffffffffffffffffffffffffffffffff16815260200190815260200160002060009054906101000a900460ff161515141515610a7e576040517f08c379a0000000000000000000000000000000000000000000000000000000008152600401610a7590612131565b60405180910390fd5b600360008373ffffffffffffffffffffffffffffffffffffffff1673ffffffffffffffffffffffffffffffffffffffff1681526020019081526020016000206040805190810160405280838152602001428152509080600181540180825580915050906001820390600052602060002090600202016000909192909190915060008201518160000190600d610b14929190611880565b50602082015181600101555050505050565b60011515600160003373ffffffffffffffffffffffffffffffffffffffff1673ffffffffffffffffffffffffffffffffffffffff16815260200190815260200160002060009054906101000a900460ff161515141515610bbb576040517f08c379a0000000000000000000000000000000000000000000000000000000008152600401610bb290612151565b60405180910390fd5b60018060008373ffffffffffffffffffffffffffffffffffffffff1673ffffffffffffffffffffffffffffffffffffffff16815260200190815260200160002060006101000a81548160ff02191690831515021790555050565b6000600360008373ffffffffffffffffffffffffffffffffffffffff1673ffffffffffffffffffffffffffffffffffffffff168152602001908152602001600020805490509050919050565b60011515600160003373ffffffffffffffffffffffffffffffffffffffff1673ffffffffffffffffffffffffffffffffffffffff16815260200190815260200160002060009054906101000a900460ff161515141515610cf6576040517f08c379a0000000000000000000000000000000000000000000000000000000008152600401610ced90612151565b60405180910390fd5b60018060008373ffffffffffffffffffffffffffffffffffffffff1673ffffffffffffffffffffffffffffffffffffffff16815260200190815260200160002060006101000a81548160ff0219169083151502179055506000600160003373ffffffffffffffffffffffffffffffffffffffff1673ffffffffffffffffffffffffffffffffffffffff16815260200190815260200160002060006101000a81548160ff02191690831515021790555050565b600115156000803373ffffffffffffffffffffffffffffffffffffffff1673ffffffffffffffffffffffffffffffffffffffff16815260200190815260200160002060009054906101000a900460ff161515141515610e3c576040517f08c379a0000000000000000000000000000000000000000000000000000000008152600401610e3390612131565b60405180910390fd5b60e0604051908101604052808681526020018560ff1681526020018461ffff1681526020018361ffff16815260200182815260200160011515815260200142815250600260008873ffffffffffffffffffffffffffffffffffffffff1673ffffffffffffffffffffffffffffffffffffffff1681526020019081526020016000206000820151816000019080519060200190610ed992919061191a565b5060208201518160010160006101000a81548160ff021916908360ff16021790555060408201518160010160016101000a81548161ffff021916908361ffff16021790555060608201518160010160036101000a81548161ffff021916908361ffff1602179055506080820151816002019080519060200190610f5d92919061191a565b5060a08201518160030160006101000a81548160ff02191690831515021790555060c08201518160040155905050505050505050565b6000600260008373ffffffffffffffffffffffffffffffffffffffff1673ffffffffffffffffffffffffffffffffffffffff16815260200190815260200160002060030160009054906101000a900460ff169050919050565b60011515600160003373ffffffffffffffffffffffffffffffffffffffff1673ffffffffffffffffffffffffffffffffffffffff16815260200190815260200160002060009054906101000a900460ff161515141515611081576040517f08c379a000000000000000000000000000000000000000000000000000000000815260040161107890612151565b60405180910390fd5b60008060008373ffffffffffffffffffffffffffffffffffffffff1673ffffffffffffffffffffffffffffffffffffffff16815260200190815260200160002060006101000a81548160ff02191690831515021790555050565b600115156000803373ffffffffffffffffffffffffffffffffffffffff1673ffffffffffffffffffffffffffffffffffffffff16815260200190815260200160002060009054906101000a900460ff16151514151561116f576040517f08c379a000000000000000000000000000000000000000000000000000000000815260040161116690612131565b60405180910390fd5b80600260008473ffffffffffffffffffffffffffffffffffffffff1673ffffffffffffffffffffffffffffffffffffffff16815260200190815260200160002060010160036101000a81548161ffff021916908361ffff1602179055505050565b6111d861199a565b600260008373ffffffffffffffffffffffffffffffffffffffff1673ffffffffffffffffffffffffffffffffffffffff16815260200190815260200160002060e06040519081016040529081600082018054600181600116156101000203166002900480601f0160208091040260200160405190810160405280929190818152602001828054600181600116156101000203166002900480156112bc5780601f10611291576101008083540402835291602001916112bc565b820191906000526020600020905b81548152906001019060200180831161129f57829003601f168201915b505050505081526020016001820160009054906101000a900460ff1660ff1660ff1681526020016001820160019054906101000a900461ffff1661ffff1661ffff1681526020016001820160039054906101000a900461ffff1661ffff1661ffff168152602001600282018054600181600116156101000203166002900480601f0160208091040260200160405190810160405280929190818152602001828054600181600116156101000203166002900480156113bb5780601f10611390576101008083540402835291602001916113bb565b820191906000526020600020905b81548152906001019060200180831161139e57829003601f168201915b505050505081526020016003820160009054906101000a900460ff161515151581526020016004820154815250509050919050565b6113f86119e5565b6080604051908101604052803373ffffffffffffffffffffffffffffffffffffffff1681526020018473ffffffffffffffffffffffffffffffffffffffff168152602001838152602001428152509050600460008473ffffffffffffffffffffffffffffffffffffffff1673ffffffffffffffffffffffffffffffffffffffff168152602001908152602001600020819080600181540180825580915050906001820390600052602060002090600402016000909192909190915060008201518160000160006101000a81548173ffffffffffffffffffffffffffffffffffffffff021916908373ffffffffffffffffffffffffffffffffffffffff16021790555060208201518160010160006101000a81548173ffffffffffffffffffffffffffffffffffffffff021916908373ffffffffffffffffffffffffffffffffffffffff160217905550604082015181600201908051906020019061155d92919061191a565b5060608201518160030155505050505050565b600115156000803373ffffffffffffffffffffffffffffffffffffffff1673ffffffffffffffffffffffffffffffffffffffff16815260200190815260200160002060009054906101000a900460ff161515141515611604576040517f08c379a00000000000000000000000000000000000000000000000000000000081526004016115fb90612131565b60405180910390fd5b80600260008473ffffffffffffffffffffffffffffffffffffffff1673ffffffffffffffffffffffffffffffffffffffff16815260200190815260200160002060010160016101000a81548161ffff021916908361ffff1602179055505050565b6060600460008373ffffffffffffffffffffffffffffffffffffffff1673ffffffffffffffffffffffffffffffffffffffff168152602001908152602001600020805480602002602001604051908101604052809291908181526020016000905b828210156118515783829060005260206000209060040201608060405190810160405290816000820160009054906101000a900473ffffffffffffffffffffffffffffffffffffffff1673ffffffffffffffffffffffffffffffffffffffff1673ffffffffffffffffffffffffffffffffffffffff1681526020016001820160009054906101000a900473ffffffffffffffffffffffffffffffffffffffff1673ffffffffffffffffffffffffffffffffffffffff1673ffffffffffffffffffffffffffffffffffffffff168152602001600282018054600181600116156101000203166002900480601f01602080910402602001604051908101604052809291908181526020018280546001816001161561010002031660029004801561182f5780601f106118045761010080835404028352916020019161182f565b820191906000526020600020905b81548152906001019060200180831161181257829003601f168201915b50505050508152602001600382015481525050815260200190600101906116c6565b505050509050919050565b6101a060405190810160405280600d90602082028038833980820191505090505090565b82600d601f016020900481019282156119095791602002820160005b838211156118da57835183826101000a81548160ff021916908360ff160217905550926020019260010160208160000104928301926001030261189c565b80156119075782816101000a81549060ff02191690556001016020816000010492830192600103026118da565b505b5090506119169190611a3a565b5090565b828054600181600116156101000203166002900490600052602060002090601f016020900481019282601f1061195b57805160ff1916838001178555611989565b82800160010185558215611989579182015b8281111561198857825182559160200191906001019061196d565b5b5090506119969190611a6a565b5090565b60e06040519081016040528060608152602001600060ff168152602001600061ffff168152602001600061ffff16815260200160608152602001600015158152602001600081525090565b608060405190810160405280600073ffffffffffffffffffffffffffffffffffffffff168152602001600073ffffffffffffffffffffffffffffffffffffffff16815260200160608152602001600081525090565b611a6791905b80821115611a6357600081816101000a81549060ff021916905550600101611a40565b5090565b90565b611a8c91905b80821115611a88576000816000905550600101611a70565b5090565b90565b6000611a9b82356122e9565b905092915050565b600082601f8301121515611ab657600080fd5b600d611ac9611ac4826121db565b6121ae565b91508183856020840282011115611adf57600080fd5b60005b83811015611b0f5781611af58882611b97565b845260208401935060208301925050600181019050611ae2565b5050505092915050565b600082601f8301121515611b2c57600080fd5b8135611b3f611b3a826121fd565b6121ae565b91508082526020830160208301858383011115611b5b57600080fd5b611b66838284612320565b50505092915050565b6000611b7b82356122fb565b905092915050565b6000611b8f8235612309565b905092915050565b6000611ba38235612313565b905092915050565b600060208284031215611bbd57600080fd5b6000611bcb84828501611a8f565b91505092915050565b6000806101c08385031215611be857600080fd5b6000611bf685828601611a8f565b9250506020611c0785828601611aa3565b9150509250929050565b60008060408385031215611c2457600080fd5b6000611c3285828601611a8f565b925050602083013567ffffffffffffffff811115611c4f57600080fd5b611c5b85828601611b19565b9150509250929050565b60008060008060008060c08789031215611c7e57600080fd5b6000611c8c89828a01611a8f565b965050602087013567ffffffffffffffff811115611ca957600080fd5b611cb589828a01611b19565b9550506040611cc689828a01611b97565b9450506060611cd789828a01611b6f565b9350506080611ce889828a01611b6f565b92505060a087013567ffffffffffffffff811115611d0557600080fd5b611d1189828a01611b19565b9150509295509295509295565b60008060408385031215611d3157600080fd5b6000611d3f85828601611a8f565b9250506020611d5085828601611b6f565b9150509250929050565b60008060408385031215611d6d57600080fd5b6000611d7b85828601611a8f565b9250506020611d8c85828601611b83565b9150509250929050565b60008060408385031215611da957600080fd5b6000611db785828601611a8f565b9250506020611dc885828601611b97565b9150509250929050565b611ddb81612286565b82525050565b6000611dec82612240565b80845260208401935083602082028501611e0585612229565b60005b84811015611e3e578383038852611e20838351611f83565b9250611e2b8261226c565b9150602088019750600181019050611e08565b508196508694505050505092915050565b611e588161224b565b611e6182612236565b60005b82811015611e9357611e778583516120a7565b611e8082612279565b9150602085019450600181019050611e64565b5050505050565b611ea381612298565b82525050565b6000611eb482612261565b808452611ec881602086016020860161232f565b611ed181612362565b602085010191505092915050565b6000611eea82612256565b808452611efe81602086016020860161232f565b611f0781612362565b602085010191505092915050565b6000601b82527f4d696e696d756d2050726976696c656765733a20446f63746f727300000000006020830152604082019050919050565b6000601982527f4d696e696d756d2050726976696c656765733a2041646d696e000000000000006020830152604082019050919050565b6000608083016000830151611f9b6000860182611dd2565b506020830151611fae6020860182611dd2565b5060408301518482036040860152611fc68282611edf565b9150506060830151611fdb6060860182612098565b508091505092915050565b600060e08301600083015184820360008601526120038282611edf565b915050602083015161201860208601826120a7565b50604083015161202b6040860182612089565b50606083015161203e6060860182612089565b50608083015184820360808601526120568282611edf565b91505060a083015161206b60a0860182611e9a565b5060c083015161207e60c0860182612098565b508091505092915050565b612092816122a4565b82525050565b6120a1816122d2565b82525050565b6120b0816122dc565b82525050565b600060208201905081810360008301526120d08184611de1565b905092915050565b60006101a0820190506120ee6000830184611e4f565b92915050565b60006020820190506121096000830184611e9a565b92915050565b600060208201905081810360008301526121298184611ea9565b905092915050565b6000602082019050818103600083015261214a81611f15565b9050919050565b6000602082019050818103600083015261216a81611f4c565b9050919050565b6000602082019050818103600083015261218b8184611fe6565b905092915050565b60006020820190506121a86000830184612098565b92915050565b6000604051905081810181811067ffffffffffffffff821117156121d157600080fd5b8060405250919050565b600067ffffffffffffffff8211156121f257600080fd5b602082029050919050565b600067ffffffffffffffff82111561221457600080fd5b601f19601f8301169050602081019050919050565b6000602082019050919050565b6000819050919050565b600081519050919050565b6000600d9050919050565b600081519050919050565b600081519050919050565b6000602082019050919050565b6000602082019050919050565b6000612291826122b2565b9050919050565b60008115159050919050565b600061ffff82169050919050565b600073ffffffffffffffffffffffffffffffffffffffff82169050919050565b6000819050919050565b600060ff82169050919050565b60006122f4826122b2565b9050919050565b600061ffff82169050919050565b6000819050919050565b600060ff82169050919050565b82818337600083830152505050565b60005b8381101561234d578082015181840152602081019050612332565b8381111561235c576000848401525b50505050565b6000601f19601f830116905091905056fea265627a7a72305820ca74449125d55060764a9260c4ed5a196368653abc914cbf58e779fb3eab8eca6c6578706572696d656e74616cf50037",
  "source": "pragma solidity ^0.5;\npragma experimental ABIEncoderV2;\n\ncontract ethHealthRecords{\n    \n    /*\n    Blood Array layout:\n        Blood[0] = hemoglobin   // 115 - 165\n        Blood[1] = whiteBlood   // 4 - 11\n        Blood[2] = platelet     // 150 - 450\n        Blood[3] = redBlood     // 38 - 58      (divid by 10)\n        Blood[4] = haematocrit  // 37 - 47      (divide by 100)\n        Blood[5] = MCV          // 76 - 98\n        Blood[6] = MCH          // 27 - 32\n        Blood[7] = MCHC         // 300 - 360\n        Blood[8] = neutrophil   // 2 - 7\n        Blood[9] = lymphocyte   // 1 - 4\n        Blood[10] = monocyte    // 2 - 8        (divide by 10)\n        Blood[11] = eosinophil  // 0 - 4        (divide by 10)\n        Blood[12] = basophil    // 0 - 1        (divide by 10)\n    */\n\n    struct PatientInfomation{\n        string gender;\n        uint8 age;\n        uint16 height;\n        uint16 weight;\n        string bloodType;\n        bool isPatient;\n        uint timestamp;\n    }\n    \n    struct PatientsBloodInfomation{\n        uint8[13] bloodResults;\n        uint timestamp;\n    }\n\n    struct Comments{\n        address doctorAddress;\n        address patientAddress;\n        string comment;\n        uint timestamp;\n    }\n\n    mapping (address => bool) isDoctor;\n    mapping (address => bool) isAdmin;\n\n    mapping (address => PatientInfomation) patients;\n    mapping (address => PatientsBloodInfomation[]) patientsBloodTest;\n\n    mapping (address => Comments[]) doctorsComments;\n\n    //Makes the creator of the contract an admim\n    constructor() public {\n        isAdmin[msg.sender] = true;\n    }\n\n    /*////////////////////////////////////////////////////////////////////////////////////\n    ///////////////////////////////// Modifier ///////////////////////////////////////////\n    ////////////////////////////////////////////////////////////////////////////////////*/\n\n    //Modifier that requires the address to be a patient\n    modifier requirePatient(address patientAddress){\n        require(\n            patients[patientAddress].isPatient,\n            \"Minimum Privileges: Patient\"\n        );\n        _;\n    }\n\n    //Modifier that requires the sender to be a doctor\n    modifier requireDoctor(){\n        require(\n            isDoctor[msg.sender] == true,\n            \"Minimum Privileges: Doctors\"\n        );\n        _;\n    }\n\n    //Modifier that requires the sender to be an admin\n    modifier requireAdmin(){\n        require(\n            isAdmin[msg.sender] == true,\n            \"Minimum Privileges: Admin\"\n        );\n        _;\n    }\n\n    modifier editPatientsRecords(address patientAddress){\n        if(isDoctor[msg.sender]){\n            if(patients[patientAddress].isPatient){\n                _;\n            }\n        }\n    }\n\n    /*////////////////////////////////////////////////////////////////////////////////////\n    ///////////////////////////////// Patients ///////////////////////////////////////////\n    ////////////////////////////////////////////////////////////////////////////////////*/\n\n    //Adds a new patient into the contract\n    function addPatient(address patientAddress, string memory gender, uint8 age, uint16 height, uint16 weight, string memory bloodType) public requireDoctor(){\n        patients[patientAddress] = PatientInfomation(gender, age, height, weight, bloodType,true, now);\n    }\n\n    //Adds the patients blood results to the contract\n    function addPatientBloodResults(address patientAddress, uint8[13] memory bloodResults) public requireDoctor(){\n        patientsBloodTest[patientAddress].push(PatientsBloodInfomation(bloodResults, now));\n    }\n\n    //Changes the age of the patient, also added the time the age was added\n    //this can be calculated in javascript to get an upto date age. \n    function changeAge(address patientAddress, uint8 newAge) public requireDoctor(){\n        patients[patientAddress].age = newAge;\n        patients[patientAddress].timestamp = now;\n    }\n\n    //Changes the height of the patient\n    function changeHeight(address patientAddress, uint16 newHeight) public requireDoctor(){\n        patients[patientAddress].height = newHeight;\n    }\n\n    //Changes the weight of the patient\n    function changeWeight(address patientAddress, uint16 newWeight) public requireDoctor(){\n        patients[patientAddress].weight = newWeight;\n    }\n\n    function isPatient(address patientAddress) public view returns(bool){\n        return patients[patientAddress].isPatient;\n    }\n\n    //Returns all infomation about the patient\n    function getPatientInfomation(address patientAddress) public view returns(PatientInfomation memory){\n        return patients[patientAddress];\n    }\n\n    //Returns all infomation about the patients blood results\n    function getPatientsBloodResults(address patientAddress, uint index) public view returns(uint8[13] memory){\n        return patientsBloodTest[patientAddress][index].bloodResults;\n    }\n    \n    function getPatientsBloodResultsLength(address patientAddress) public view returns(uint){\n        return patientsBloodTest[patientAddress].length;\n    }\n\n    /*////////////////////////////////////////////////////////////////////////////////////\n    ///////////////////////////////// Privileges /////////////////////////////////////////\n    ////////////////////////////////////////////////////////////////////////////////////*/\n\n    //Transfers the admin privileges to another address\n    function transferAdmin(address adminAddress) public requireAdmin{\n        isAdmin[adminAddress] = true;\n        isAdmin[msg.sender] = false;\n    }\n\n    function addAdmin(address adminAddress) public requireAdmin{\n        isAdmin[adminAddress] = true;\n    }\n\n    function removeAdmin(address adminAddress) public requireAdmin{\n        isAdmin[adminAddress] = false;\n    }\n\n    //Adds a new doctor to the contract\n    function addDoctor(address doctorAddress) public requireAdmin{\n        isDoctor[doctorAddress] = true;\n    }\n\n    //Remove a doctor from the contract\n    function removeDoctor(address doctorAddress) public requireAdmin{\n        isDoctor[doctorAddress] = false;\n    }\n\n    function getPrivileges() public view returns (string memory){\n\n        if(isAdmin[msg.sender]){\n            return \"Admin\";\n        }else if(isDoctor[msg.sender]){\n            return \"Doctor\";\n        }else if(patients[msg.sender].isPatient){\n            return \"Patient\";\n        }else{\n            return \"Nothing\";\n        }\n    }\n\n    /*////////////////////////////////////////////////////////////////////////////////////\n    ///////////////////////////////// Comments ///////////////////////////////////////////\n    ////////////////////////////////////////////////////////////////////////////////////*/\n\n    //Adds a new comment to the contract\n    function addComment(address patientAddress, string memory comment) public {\n        Comments memory newComment = Comments(msg.sender, patientAddress, comment, now);\n\n        doctorsComments[patientAddress].push(newComment);\n    }\n    \n    //Gets all of the comments for a patient\n    function getComment(address patientAddress) public view returns(Comments[] memory){\n        return doctorsComments[patientAddress];\n    }\n}",
  "sourcePath": "/Users/jordan/Documents/Development/Ethereum-Blood-Test/Truffle-Contract/contracts/ethHealthRecords.sol",
  "compiler": {
    "name": "solc",
    "version": "0.5.0+commit.1d4f565a.Emscripten.clang"
  },
  "schemaVersion": "3.0.3",
  "updatedAt": "2019-03-20T15:52:19.960Z",
  "devdoc": {
    "methods": {}
  },
  "userdoc": {
    "methods": {}
  }
}