{
  "contractName": "ethHealthRecords",
  "abi": [
    {
      "inputs": [],
      "payable": false,
      "stateMutability": "nonpayable",
      "type": "constructor"
    },
    {
      "constant": false,
      "inputs": [
        {
          "name": "patientAddress",
          "type": "address"
        },
        {
          "name": "gender",
          "type": "string"
        },
        {
          "name": "age",
          "type": "uint8"
        },
        {
          "name": "height",
          "type": "uint16"
        },
        {
          "name": "weight",
          "type": "uint16"
        },
        {
          "name": "bloodType",
          "type": "string"
        }
      ],
      "name": "addPatient",
      "outputs": [],
      "payable": false,
      "stateMutability": "nonpayable",
      "type": "function"
    },
    {
      "constant": false,
      "inputs": [
        {
          "name": "patientAddress",
          "type": "address"
        },
        {
          "name": "bloodResults",
          "type": "uint8[13]"
        }
      ],
      "name": "addPatientBloodResults",
      "outputs": [],
      "payable": false,
      "stateMutability": "nonpayable",
      "type": "function"
    },
    {
      "constant": false,
      "inputs": [
        {
          "name": "patientAddress",
          "type": "address"
        },
        {
          "name": "newAge",
          "type": "uint8"
        }
      ],
      "name": "changeAge",
      "outputs": [],
      "payable": false,
      "stateMutability": "nonpayable",
      "type": "function"
    },
    {
      "constant": false,
      "inputs": [
        {
          "name": "patientAddress",
          "type": "address"
        },
        {
          "name": "newHeight",
          "type": "uint16"
        }
      ],
      "name": "changeHeight",
      "outputs": [],
      "payable": false,
      "stateMutability": "nonpayable",
      "type": "function"
    },
    {
      "constant": false,
      "inputs": [
        {
          "name": "patientAddress",
          "type": "address"
        },
        {
          "name": "newWeight",
          "type": "uint16"
        }
      ],
      "name": "changeWeight",
      "outputs": [],
      "payable": false,
      "stateMutability": "nonpayable",
      "type": "function"
    },
    {
      "constant": true,
      "inputs": [
        {
          "name": "patientAddress",
          "type": "address"
        }
      ],
      "name": "isPatient",
      "outputs": [
        {
          "name": "",
          "type": "bool"
        }
      ],
      "payable": false,
      "stateMutability": "view",
      "type": "function"
    },
    {
      "constant": true,
      "inputs": [],
      "name": "getPatientInfomation",
      "outputs": [
        {
          "components": [
            {
              "name": "gender",
              "type": "string"
            },
            {
              "name": "age",
              "type": "uint8"
            },
            {
              "name": "height",
              "type": "uint16"
            },
            {
              "name": "weight",
              "type": "uint16"
            },
            {
              "name": "bloodType",
              "type": "string"
            },
            {
              "name": "isPatient",
              "type": "bool"
            },
            {
              "name": "timestamp",
              "type": "uint256"
            }
          ],
          "name": "",
          "type": "tuple"
        }
      ],
      "payable": false,
      "stateMutability": "view",
      "type": "function"
    },
    {
      "constant": true,
      "inputs": [
        {
          "name": "patientAddress",
          "type": "address"
        }
      ],
      "name": "getPatientInfomation",
      "outputs": [
        {
          "components": [
            {
              "name": "gender",
              "type": "string"
            },
            {
              "name": "age",
              "type": "uint8"
            },
            {
              "name": "height",
              "type": "uint16"
            },
            {
              "name": "weight",
              "type": "uint16"
            },
            {
              "name": "bloodType",
              "type": "string"
            },
            {
              "name": "isPatient",
              "type": "bool"
            },
            {
              "name": "timestamp",
              "type": "uint256"
            }
          ],
          "name": "",
          "type": "tuple"
        }
      ],
      "payable": false,
      "stateMutability": "view",
      "type": "function"
    },
    {
      "constant": true,
      "inputs": [
        {
          "name": "patientAddress",
          "type": "address"
        },
        {
          "name": "index",
          "type": "uint8"
        }
      ],
      "name": "getPatientsBloodResults",
      "outputs": [
        {
          "name": "",
          "type": "uint8[13]"
        }
      ],
      "payable": false,
      "stateMutability": "view",
      "type": "function"
    },
    {
      "constant": true,
      "inputs": [
        {
          "name": "index",
          "type": "uint256"
        }
      ],
      "name": "getPatientsBloodResults",
      "outputs": [
        {
          "name": "",
          "type": "uint8[13]"
        }
      ],
      "payable": false,
      "stateMutability": "view",
      "type": "function"
    },
    {
      "constant": true,
      "inputs": [
        {
          "name": "patientAddress",
          "type": "address"
        }
      ],
      "name": "getPatientsBloodResultsLength",
      "outputs": [
        {
          "name": "",
          "type": "uint256"
        }
      ],
      "payable": false,
      "stateMutability": "view",
      "type": "function"
    },
    {
      "constant": true,
      "inputs": [],
      "name": "getPatientsBloodResultsLength",
      "outputs": [
        {
          "name": "",
          "type": "uint256"
        }
      ],
      "payable": false,
      "stateMutability": "view",
      "type": "function"
    },
    {
      "constant": false,
      "inputs": [
        {
          "name": "adminAddress",
          "type": "address"
        }
      ],
      "name": "transferAdmin",
      "outputs": [],
      "payable": false,
      "stateMutability": "nonpayable",
      "type": "function"
    },
    {
      "constant": false,
      "inputs": [
        {
          "name": "adminAddress",
          "type": "address"
        }
      ],
      "name": "addAdmin",
      "outputs": [],
      "payable": false,
      "stateMutability": "nonpayable",
      "type": "function"
    },
    {
      "constant": false,
      "inputs": [
        {
          "name": "adminAddress",
          "type": "address"
        }
      ],
      "name": "removeAdmin",
      "outputs": [],
      "payable": false,
      "stateMutability": "nonpayable",
      "type": "function"
    },
    {
      "constant": false,
      "inputs": [
        {
          "name": "doctorAddress",
          "type": "address"
        }
      ],
      "name": "addDoctor",
      "outputs": [],
      "payable": false,
      "stateMutability": "nonpayable",
      "type": "function"
    },
    {
      "constant": false,
      "inputs": [
        {
          "name": "doctorAddress",
          "type": "address"
        }
      ],
      "name": "removeDoctor",
      "outputs": [],
      "payable": false,
      "stateMutability": "nonpayable",
      "type": "function"
    },
    {
      "constant": true,
      "inputs": [],
      "name": "getPrivileges",
      "outputs": [
        {
          "name": "",
          "type": "string"
        }
      ],
      "payable": false,
      "stateMutability": "view",
      "type": "function"
    },
    {
      "constant": false,
      "inputs": [
        {
          "name": "patientAddress",
          "type": "address"
        },
        {
          "name": "comment",
          "type": "string"
        }
      ],
      "name": "addComment",
      "outputs": [],
      "payable": false,
      "stateMutability": "nonpayable",
      "type": "function"
    },
    {
      "constant": true,
      "inputs": [
        {
          "name": "patientAddress",
          "type": "address"
        }
      ],
      "name": "getComment",
      "outputs": [
        {
          "components": [
            {
              "name": "doctorAddress",
              "type": "address"
            },
            {
              "name": "patientAddress",
              "type": "address"
            },
            {
              "name": "comment",
              "type": "string"
            },
            {
              "name": "timestamp",
              "type": "uint256"
            }
          ],
          "name": "",
          "type": "tuple[]"
        }
      ],
      "payable": false,
      "stateMutability": "view",
      "type": "function"
    }
  ],
  "bytecode": "0x608060405234801561001057600080fd5b5060018060003373ffffffffffffffffffffffffffffffffffffffff1673ffffffffffffffffffffffffffffffffffffffff16815260200190815260200160002060006101000a81548160ff021916908315150217905550612ac7806100776000396000f3fe608060405260043610610112576000357c0100000000000000000000000000000000000000000000000000000000900463ffffffff1680630860e6e3146101175780631785f53c14610142578063357b39e11461016b57806335c8fdc3146101965780634780468f146101bf57806349e51581146101e8578063704802751461021157806372f8ae9c1461023a57806375829def146102775780638f51c43c146102a05780638f9c79ed146102c957806398fc90e914610306578063a94366491461032f578063ab991cac1461035a578063ae9b235b14610383578063e2005b98146103c0578063e58420ea146103e9578063e72ab42d14610412578063f361af731461044f578063f6bb0cf11461048c575b600080fd5b34801561012357600080fd5b5061012c6104c9565b604051610139919061288b565b60405180910390f35b34801561014e57600080fd5b5061016960048036036101649190810190612281565b610778565b005b34801561017757600080fd5b50610180610868565b60405161018d9190612809565b60405180910390f35b3480156101a257600080fd5b506101bd60048036036101b89190810190612430565b610a55565b005b3480156101cb57600080fd5b506101e660048036036101e19190810190612281565b610bea565b005b3480156101f457600080fd5b5061020f600480360361020a91908101906122aa565b610cd9565b005b34801561021d57600080fd5b5061023860048036036102339190810190612281565b610e70565b005b34801561024657600080fd5b50610261600480360361025c9190810190612281565b610f5f565b60405161026e91906128ad565b60405180910390f35b34801561028357600080fd5b5061029e60048036036102999190810190612281565b610fab565b005b3480156102ac57600080fd5b506102c760048036036102c2919081019061233b565b6110f2565b005b3480156102d557600080fd5b506102f060048036036102eb9190810190612281565b611338565b6040516102fd91906127ee565b60405180910390f35b34801561031257600080fd5b5061032d60048036036103289190810190612281565b611391565b005b34801561033b57600080fd5b50610344611480565b60405161035191906128ad565b60405180910390f35b34801561036657600080fd5b50610381600480360361037c91908101906123f4565b6114ca565b005b34801561038f57600080fd5b506103aa60048036036103a59190810190612281565b61161a565b6040516103b7919061288b565b60405180910390f35b3480156103cc57600080fd5b506103e760048036036103e291908101906122e7565b61183a565b005b3480156103f557600080fd5b50610410600480360361040b91908101906123f4565b6119ba565b005b34801561041e57600080fd5b5061043960048036036104349190810190612430565b611b0a565b60405161044691906127d2565b60405180910390f35b34801561045b57600080fd5b506104766004803603610471919081019061246c565b611bdc565b60405161048391906127d2565b60405180910390f35b34801561049857600080fd5b506104b360048036036104ae9190810190612281565b611d3b565b6040516104c091906127b0565b60405180910390f35b6104d1611f32565b600260003373ffffffffffffffffffffffffffffffffffffffff1673ffffffffffffffffffffffffffffffffffffffff16815260200190815260200160002060030160009054906101000a900460ff161515610562576040517f08c379a00000000000000000000000000000000000000000000000000000000081526004016105599061284b565b60405180910390fd5b600260003373ffffffffffffffffffffffffffffffffffffffff1673ffffffffffffffffffffffffffffffffffffffff16815260200190815260200160002060e06040519081016040529081600082018054600181600116156101000203166002900480601f0160208091040260200160405190810160405280929190818152602001828054600181600116156101000203166002900480156106465780601f1061061b57610100808354040283529160200191610646565b820191906000526020600020905b81548152906001019060200180831161062957829003601f168201915b505050505081526020016001820160009054906101000a900460ff1660ff1660ff1681526020016001820160019054906101000a900461ffff1661ffff1661ffff1681526020016001820160039054906101000a900461ffff1661ffff1661ffff168152602001600282018054600181600116156101000203166002900480601f0160208091040260200160405190810160405280929190818152602001828054600181600116156101000203166002900480156107455780601f1061071a57610100808354040283529160200191610745565b820191906000526020600020905b81548152906001019060200180831161072857829003601f168201915b505050505081526020016003820160009054906101000a900460ff16151515158152602001600482015481525050905090565b60011515600160003373ffffffffffffffffffffffffffffffffffffffff1673ffffffffffffffffffffffffffffffffffffffff16815260200190815260200160002060009054906101000a900460ff16151514151561080d576040517f08c379a00000000000000000000000000000000000000000000000000000000081526004016108049061286b565b60405180910390fd5b6000600160008373ffffffffffffffffffffffffffffffffffffffff1673ffffffffffffffffffffffffffffffffffffffff16815260200190815260200160002060006101000a81548160ff02191690831515021790555050565b6060600160003373ffffffffffffffffffffffffffffffffffffffff1673ffffffffffffffffffffffffffffffffffffffff16815260200190815260200160002060009054906101000a900460ff16156108f9576040805190810160405280600581526020017f41646d696e0000000000000000000000000000000000000000000000000000008152509050610a52565b6000803373ffffffffffffffffffffffffffffffffffffffff1673ffffffffffffffffffffffffffffffffffffffff16815260200190815260200160002060009054906101000a900460ff1615610987576040805190810160405280600681526020017f446f63746f7200000000000000000000000000000000000000000000000000008152509050610a52565b600260003373ffffffffffffffffffffffffffffffffffffffff1673ffffffffffffffffffffffffffffffffffffffff16815260200190815260200160002060030160009054906101000a900460ff1615610a19576040805190810160405280600781526020017f50617469656e74000000000000000000000000000000000000000000000000008152509050610a52565b6040805190810160405280600781526020017f4e6f7468696e670000000000000000000000000000000000000000000000000081525090505b90565b600115156000803373ffffffffffffffffffffffffffffffffffffffff1673ffffffffffffffffffffffffffffffffffffffff16815260200190815260200160002060009054906101000a900460ff1615151480610b03575060011515600160003373ffffffffffffffffffffffffffffffffffffffff1673ffffffffffffffffffffffffffffffffffffffff16815260200190815260200160002060009054906101000a900460ff161515145b1515610b44576040517f08c379a0000000000000000000000000000000000000000000000000000000008152600401610b3b9061282b565b60405180910390fd5b80600260008473ffffffffffffffffffffffffffffffffffffffff1673ffffffffffffffffffffffffffffffffffffffff16815260200190815260200160002060010160006101000a81548160ff021916908360ff16021790555042600260008473ffffffffffffffffffffffffffffffffffffffff1673ffffffffffffffffffffffffffffffffffffffff168152602001908152602001600020600401819055505050565b60011515600160003373ffffffffffffffffffffffffffffffffffffffff1673ffffffffffffffffffffffffffffffffffffffff16815260200190815260200160002060009054906101000a900460ff161515141515610c7f576040517f08c379a0000000000000000000000000000000000000000000000000000000008152600401610c769061286b565b60405180910390fd5b60016000808373ffffffffffffffffffffffffffffffffffffffff1673ffffffffffffffffffffffffffffffffffffffff16815260200190815260200160002060006101000a81548160ff02191690831515021790555050565b600115156000803373ffffffffffffffffffffffffffffffffffffffff1673ffffffffffffffffffffffffffffffffffffffff16815260200190815260200160002060009054906101000a900460ff1615151480610d87575060011515600160003373ffffffffffffffffffffffffffffffffffffffff1673ffffffffffffffffffffffffffffffffffffffff16815260200190815260200160002060009054906101000a900460ff161515145b1515610dc8576040517f08c379a0000000000000000000000000000000000000000000000000000000008152600401610dbf9061282b565b60405180910390fd5b600360008373ffffffffffffffffffffffffffffffffffffffff1673ffffffffffffffffffffffffffffffffffffffff1681526020019081526020016000206040805190810160405280838152602001428152509080600181540180825580915050906001820390600052602060002090600202016000909192909190915060008201518160000190600d610e5e929190611f7d565b50602082015181600101555050505050565b60011515600160003373ffffffffffffffffffffffffffffffffffffffff1673ffffffffffffffffffffffffffffffffffffffff16815260200190815260200160002060009054906101000a900460ff161515141515610f05576040517f08c379a0000000000000000000000000000000000000000000000000000000008152600401610efc9061286b565b60405180910390fd5b60018060008373ffffffffffffffffffffffffffffffffffffffff1673ffffffffffffffffffffffffffffffffffffffff16815260200190815260200160002060006101000a81548160ff02191690831515021790555050565b6000600360008373ffffffffffffffffffffffffffffffffffffffff1673ffffffffffffffffffffffffffffffffffffffff168152602001908152602001600020805490509050919050565b60011515600160003373ffffffffffffffffffffffffffffffffffffffff1673ffffffffffffffffffffffffffffffffffffffff16815260200190815260200160002060009054906101000a900460ff161515141515611040576040517f08c379a00000000000000000000000000000000000000000000000000000000081526004016110379061286b565b60405180910390fd5b60018060008373ffffffffffffffffffffffffffffffffffffffff1673ffffffffffffffffffffffffffffffffffffffff16815260200190815260200160002060006101000a81548160ff0219169083151502179055506000600160003373ffffffffffffffffffffffffffffffffffffffff1673ffffffffffffffffffffffffffffffffffffffff16815260200190815260200160002060006101000a81548160ff02191690831515021790555050565b600115156000803373ffffffffffffffffffffffffffffffffffffffff1673ffffffffffffffffffffffffffffffffffffffff16815260200190815260200160002060009054906101000a900460ff16151514806111a0575060011515600160003373ffffffffffffffffffffffffffffffffffffffff1673ffffffffffffffffffffffffffffffffffffffff16815260200190815260200160002060009054906101000a900460ff161515145b15156111e1576040517f08c379a00000000000000000000000000000000000000000000000000000000081526004016111d89061282b565b60405180910390fd5b60e0604051908101604052808681526020018560ff1681526020018461ffff1681526020018361ffff16815260200182815260200160011515815260200142815250600260008873ffffffffffffffffffffffffffffffffffffffff1673ffffffffffffffffffffffffffffffffffffffff168152602001908152602001600020600082015181600001908051906020019061127e929190612017565b5060208201518160010160006101000a81548160ff021916908360ff16021790555060408201518160010160016101000a81548161ffff021916908361ffff16021790555060608201518160010160036101000a81548161ffff021916908361ffff1602179055506080820151816002019080519060200190611302929190612017565b5060a08201518160030160006101000a81548160ff02191690831515021790555060c08201518160040155905050505050505050565b6000600260008373ffffffffffffffffffffffffffffffffffffffff1673ffffffffffffffffffffffffffffffffffffffff16815260200190815260200160002060030160009054906101000a900460ff169050919050565b60011515600160003373ffffffffffffffffffffffffffffffffffffffff1673ffffffffffffffffffffffffffffffffffffffff16815260200190815260200160002060009054906101000a900460ff161515141515611426576040517f08c379a000000000000000000000000000000000000000000000000000000000815260040161141d9061286b565b60405180910390fd5b60008060008373ffffffffffffffffffffffffffffffffffffffff1673ffffffffffffffffffffffffffffffffffffffff16815260200190815260200160002060006101000a81548160ff02191690831515021790555050565b6000600360003373ffffffffffffffffffffffffffffffffffffffff1673ffffffffffffffffffffffffffffffffffffffff16815260200190815260200160002080549050905090565b600115156000803373ffffffffffffffffffffffffffffffffffffffff1673ffffffffffffffffffffffffffffffffffffffff16815260200190815260200160002060009054906101000a900460ff1615151480611578575060011515600160003373ffffffffffffffffffffffffffffffffffffffff1673ffffffffffffffffffffffffffffffffffffffff16815260200190815260200160002060009054906101000a900460ff161515145b15156115b9576040517f08c379a00000000000000000000000000000000000000000000000000000000081526004016115b09061282b565b60405180910390fd5b80600260008473ffffffffffffffffffffffffffffffffffffffff1673ffffffffffffffffffffffffffffffffffffffff16815260200190815260200160002060010160036101000a81548161ffff021916908361ffff1602179055505050565b611622611f32565b600260008373ffffffffffffffffffffffffffffffffffffffff1673ffffffffffffffffffffffffffffffffffffffff16815260200190815260200160002060e06040519081016040529081600082018054600181600116156101000203166002900480601f0160208091040260200160405190810160405280929190818152602001828054600181600116156101000203166002900480156117065780601f106116db57610100808354040283529160200191611706565b820191906000526020600020905b8154815290600101906020018083116116e957829003601f168201915b505050505081526020016001820160009054906101000a900460ff1660ff1660ff1681526020016001820160019054906101000a900461ffff1661ffff1661ffff1681526020016001820160039054906101000a900461ffff1661ffff1661ffff168152602001600282018054600181600116156101000203166002900480601f0160208091040260200160405190810160405280929190818152602001828054600181600116156101000203166002900480156118055780601f106117da57610100808354040283529160200191611805565b820191906000526020600020905b8154815290600101906020018083116117e857829003601f168201915b505050505081526020016003820160009054906101000a900460ff161515151581526020016004820154815250509050919050565b611842612097565b6080604051908101604052803373ffffffffffffffffffffffffffffffffffffffff1681526020018473ffffffffffffffffffffffffffffffffffffffff168152602001838152602001428152509050600460008473ffffffffffffffffffffffffffffffffffffffff1673ffffffffffffffffffffffffffffffffffffffff168152602001908152602001600020819080600181540180825580915050906001820390600052602060002090600402016000909192909190915060008201518160000160006101000a81548173ffffffffffffffffffffffffffffffffffffffff021916908373ffffffffffffffffffffffffffffffffffffffff16021790555060208201518160010160006101000a81548173ffffffffffffffffffffffffffffffffffffffff021916908373ffffffffffffffffffffffffffffffffffffffff16021790555060408201518160020190805190602001906119a7929190612017565b5060608201518160030155505050505050565b600115156000803373ffffffffffffffffffffffffffffffffffffffff1673ffffffffffffffffffffffffffffffffffffffff16815260200190815260200160002060009054906101000a900460ff1615151480611a68575060011515600160003373ffffffffffffffffffffffffffffffffffffffff1673ffffffffffffffffffffffffffffffffffffffff16815260200190815260200160002060009054906101000a900460ff161515145b1515611aa9576040517f08c379a0000000000000000000000000000000000000000000000000000000008152600401611aa09061282b565b60405180910390fd5b80600260008473ffffffffffffffffffffffffffffffffffffffff1673ffffffffffffffffffffffffffffffffffffffff16815260200190815260200160002060010160016101000a81548161ffff021916908361ffff1602179055505050565b611b126120ec565b600360008473ffffffffffffffffffffffffffffffffffffffff1673ffffffffffffffffffffffffffffffffffffffff1681526020019081526020016000208260ff16815481101515611b6157fe5b9060005260206000209060020201600001600d806020026040519081016040528092919082600d8015611bcf576020028201916000905b82829054906101000a900460ff1660ff1681526020019060010190602082600001049283019260010382029150808411611b985790505b5050505050905092915050565b611be46120ec565b600260003373ffffffffffffffffffffffffffffffffffffffff1673ffffffffffffffffffffffffffffffffffffffff16815260200190815260200160002060030160009054906101000a900460ff161515611c75576040517f08c379a0000000000000000000000000000000000000000000000000000000008152600401611c6c9061284b565b60405180910390fd5b600360003373ffffffffffffffffffffffffffffffffffffffff1673ffffffffffffffffffffffffffffffffffffffff16815260200190815260200160002082815481101515611cc157fe5b9060005260206000209060020201600001600d806020026040519081016040528092919082600d8015611d2f576020028201916000905b82829054906101000a900460ff1660ff1681526020019060010190602082600001049283019260010382029150808411611cf85790505b50505050509050919050565b6060600460008373ffffffffffffffffffffffffffffffffffffffff1673ffffffffffffffffffffffffffffffffffffffff168152602001908152602001600020805480602002602001604051908101604052809291908181526020016000905b82821015611f275783829060005260206000209060040201608060405190810160405290816000820160009054906101000a900473ffffffffffffffffffffffffffffffffffffffff1673ffffffffffffffffffffffffffffffffffffffff1673ffffffffffffffffffffffffffffffffffffffff1681526020016001820160009054906101000a900473ffffffffffffffffffffffffffffffffffffffff1673ffffffffffffffffffffffffffffffffffffffff1673ffffffffffffffffffffffffffffffffffffffff168152602001600282018054600181600116156101000203166002900480601f016020809104026020016040519081016040528092919081815260200182805460018160011615610100020316600290048015611f055780601f10611eda57610100808354040283529160200191611f05565b820191906000526020600020905b815481529060010190602001808311611ee857829003601f168201915b5050505050815260200160038201548152505081526020019060010190611d9c565b505050509050919050565b60e06040519081016040528060608152602001600060ff168152602001600061ffff168152602001600061ffff16815260200160608152602001600015158152602001600081525090565b82600d601f016020900481019282156120065791602002820160005b83821115611fd757835183826101000a81548160ff021916908360ff1602179055509260200192600101602081600001049283019260010302611f99565b80156120045782816101000a81549060ff0219169055600101602081600001049283019260010302611fd7565b505b5090506120139190612110565b5090565b828054600181600116156101000203166002900490600052602060002090601f016020900481019282601f1061205857805160ff1916838001178555612086565b82800160010185558215612086579182015b8281111561208557825182559160200191906001019061206a565b5b5090506120939190612140565b5090565b608060405190810160405280600073ffffffffffffffffffffffffffffffffffffffff168152602001600073ffffffffffffffffffffffffffffffffffffffff16815260200160608152602001600081525090565b6101a060405190810160405280600d90602082028038833980820191505090505090565b61213d91905b8082111561213957600081816101000a81549060ff021916905550600101612116565b5090565b90565b61216291905b8082111561215e576000816000905550600101612146565b5090565b90565b60006121718235612a03565b905092915050565b600082601f830112151561218c57600080fd5b600d61219f61219a826128f5565b6128c8565b915081838560208402820111156121b557600080fd5b60005b838110156121e557816121cb888261226d565b8452602084019350602083019250506001810190506121b8565b5050505092915050565b600082601f830112151561220257600080fd5b813561221561221082612917565b6128c8565b9150808252602083016020830185838301111561223157600080fd5b61223c838284612a3a565b50505092915050565b60006122518235612a15565b905092915050565b60006122658235612a23565b905092915050565b60006122798235612a2d565b905092915050565b60006020828403121561229357600080fd5b60006122a184828501612165565b91505092915050565b6000806101c083850312156122be57600080fd5b60006122cc85828601612165565b92505060206122dd85828601612179565b9150509250929050565b600080604083850312156122fa57600080fd5b600061230885828601612165565b925050602083013567ffffffffffffffff81111561232557600080fd5b612331858286016121ef565b9150509250929050565b60008060008060008060c0878903121561235457600080fd5b600061236289828a01612165565b965050602087013567ffffffffffffffff81111561237f57600080fd5b61238b89828a016121ef565b955050604061239c89828a0161226d565b94505060606123ad89828a01612245565b93505060806123be89828a01612245565b92505060a087013567ffffffffffffffff8111156123db57600080fd5b6123e789828a016121ef565b9150509295509295509295565b6000806040838503121561240757600080fd5b600061241585828601612165565b925050602061242685828601612245565b9150509250929050565b6000806040838503121561244357600080fd5b600061245185828601612165565b92505060206124628582860161226d565b9150509250929050565b60006020828403121561247e57600080fd5b600061248c84828501612259565b91505092915050565b61249e816129a0565b82525050565b60006124af8261295a565b808452602084019350836020820285016124c885612943565b60005b848110156125015783830388526124e383835161267d565b92506124ee82612986565b91506020880197506001810190506124cb565b508196508694505050505092915050565b61251b81612965565b61252482612950565b60005b828110156125565761253a8583516127a1565b61254382612993565b9150602085019450600181019050612527565b5050505050565b612566816129b2565b82525050565b60006125778261297b565b80845261258b816020860160208601612a49565b61259481612a7c565b602085010191505092915050565b60006125ad82612970565b8084526125c1816020860160208601612a49565b6125ca81612a7c565b602085010191505092915050565b6000601b82527f4d696e696d756d2050726976696c656765733a20446f63746f727300000000006020830152604082019050919050565b6000601b82527f4d696e696d756d2050726976696c656765733a2050617469656e7400000000006020830152604082019050919050565b6000601982527f4d696e696d756d2050726976696c656765733a2041646d696e000000000000006020830152604082019050919050565b60006080830160008301516126956000860182612495565b5060208301516126a86020860182612495565b50604083015184820360408601526126c082826125a2565b91505060608301516126d56060860182612792565b508091505092915050565b600060e08301600083015184820360008601526126fd82826125a2565b915050602083015161271260208601826127a1565b5060408301516127256040860182612783565b5060608301516127386060860182612783565b506080830151848203608086015261275082826125a2565b91505060a083015161276560a086018261255d565b5060c083015161277860c0860182612792565b508091505092915050565b61278c816129be565b82525050565b61279b816129ec565b82525050565b6127aa816129f6565b82525050565b600060208201905081810360008301526127ca81846124a4565b905092915050565b60006101a0820190506127e86000830184612512565b92915050565b6000602082019050612803600083018461255d565b92915050565b60006020820190508181036000830152612823818461256c565b905092915050565b60006020820190508181036000830152612844816125d8565b9050919050565b600060208201905081810360008301526128648161260f565b9050919050565b6000602082019050818103600083015261288481612646565b9050919050565b600060208201905081810360008301526128a581846126e0565b905092915050565b60006020820190506128c26000830184612792565b92915050565b6000604051905081810181811067ffffffffffffffff821117156128eb57600080fd5b8060405250919050565b600067ffffffffffffffff82111561290c57600080fd5b602082029050919050565b600067ffffffffffffffff82111561292e57600080fd5b601f19601f8301169050602081019050919050565b6000602082019050919050565b6000819050919050565b600081519050919050565b6000600d9050919050565b600081519050919050565b600081519050919050565b6000602082019050919050565b6000602082019050919050565b60006129ab826129cc565b9050919050565b60008115159050919050565b600061ffff82169050919050565b600073ffffffffffffffffffffffffffffffffffffffff82169050919050565b6000819050919050565b600060ff82169050919050565b6000612a0e826129cc565b9050919050565b600061ffff82169050919050565b6000819050919050565b600060ff82169050919050565b82818337600083830152505050565b60005b83811015612a67578082015181840152602081019050612a4c565b83811115612a76576000848401525b50505050565b6000601f19601f830116905091905056fea265627a7a72305820f1ae72c4825360c8d3bdb5a0261824aef3575c45f000195656867d1679ba40686c6578706572696d656e74616cf50037",
  "source": "pragma solidity ^0.5;\npragma experimental ABIEncoderV2;\n\ncontract ethHealthRecords{\n    \n    /*\n    Blood Array layout:\n        Blood[0] = hemoglobin   // 115 - 165\n        Blood[1] = White Blood   // 4 - 11\n        Blood[2] = Platelet     // 150 - 450\n        Blood[3] = Red Blood     // 38 - 58      (divid by 10)\n        Blood[4] = Haematocrit  // 37 - 47      (divide by 100)\n        Blood[5] = MCV          // 76 - 98\n        Blood[6] = MCH          // 27 - 32\n        Blood[7] = MCHC         // 300 - 360\n        Blood[8] = Neutrophil   // 2 - 7\n        Blood[9] = Lymphocyte   // 1 - 4\n        Blood[10] = Monocyte    // 2 - 8        (divide by 10)\n        Blood[11] = Eosinophil  // 0 - 4        (divide by 10)\n        Blood[12] = Basophil    // 0 - 1        (divide by 10)\n    */\n\n    struct PatientInfomation{\n        string gender;\n        uint8 age;\n        uint16 height;\n        uint16 weight;\n        string bloodType;\n        bool isPatient;\n        uint timestamp;\n    }\n    \n    struct PatientsBloodInfomation{\n        uint8[13] bloodResults;\n        uint timestamp;\n    }\n\n    struct Comments{\n        address doctorAddress;\n        address patientAddress;\n        string comment;\n        uint timestamp;\n    }\n\n    mapping (address => bool) isDoctor;\n    mapping (address => bool) isAdmin;\n\n    mapping (address => PatientInfomation) patients;\n    mapping (address => PatientsBloodInfomation[]) patientsBloodTest;\n\n    mapping (address => Comments[]) doctorsComments;\n\n    //Makes the creator of the contract an admim\n    constructor() public {\n        isAdmin[msg.sender] = true;\n    }\n\n    /*////////////////////////////////////////////////////////////////////////////////////\n    ///////////////////////////////// Modifier ///////////////////////////////////////////\n    ////////////////////////////////////////////////////////////////////////////////////*/\n\n    //Modifier that requires the address to be a patient\n    modifier requirePatient(){\n        require(\n            patients[msg.sender].isPatient,\n            \"Minimum Privileges: Patient\"\n        );\n        _;\n    }\n\n    //Modifier that requires the sender to be a doctor\n    modifier requireDoctor(){\n        require(\n            isDoctor[msg.sender] == true || isAdmin[msg.sender] == true,\n            \"Minimum Privileges: Doctors\"\n        );\n        _;\n    }\n\n    //Modifier that requires the sender to be an admin\n    modifier requireAdmin(){\n        require(\n            isAdmin[msg.sender] == true,\n            \"Minimum Privileges: Admin\"\n        );\n        _;\n    }\n\n    modifier editPatientsRecords(address patientAddress){\n        if(isDoctor[msg.sender]){\n            if(patients[patientAddress].isPatient){\n                _;\n            }\n        }\n    }\n\n    /*////////////////////////////////////////////////////////////////////////////////////\n    ///////////////////////////////// Patients ///////////////////////////////////////////\n    ////////////////////////////////////////////////////////////////////////////////////*/\n\n    //Adds a new patient into the contract\n    function addPatient(address patientAddress, string memory gender, uint8 age, uint16 height, uint16 weight, string memory bloodType) public requireDoctor(){\n        patients[patientAddress] = PatientInfomation(gender, age, height, weight, bloodType,true, now);\n    }\n\n    //Adds the patients blood results to the contract\n    function addPatientBloodResults(address patientAddress, uint8[13] memory bloodResults) public requireDoctor(){\n        patientsBloodTest[patientAddress].push(PatientsBloodInfomation(bloodResults, now));\n    }\n\n    //Changes the age of the patient, also added the time the age was added\n    //this can be calculated in javascript to get an upto date age. \n    function changeAge(address patientAddress, uint8 newAge) public requireDoctor(){\n        patients[patientAddress].age = newAge;\n        patients[patientAddress].timestamp = now;\n    }\n\n    //Changes the height of the patient\n    function changeHeight(address patientAddress, uint16 newHeight) public requireDoctor(){\n        patients[patientAddress].height = newHeight;\n    }\n\n    //Changes the weight of the patient\n    function changeWeight(address patientAddress, uint16 newWeight) public requireDoctor(){\n        patients[patientAddress].weight = newWeight;\n    }\n\n    function isPatient(address patientAddress) public view returns(bool){\n        return patients[patientAddress].isPatient;\n    }\n    \n    //Returns all infomation about the patient\n    function getPatientInfomation() public view requirePatient returns(PatientInfomation memory){\n        return patients[msg.sender];\n    }\n    \n    //Returns all infomation about the patient\n    function getPatientInfomation(address patientAddress) public view returns(PatientInfomation memory){\n        return patients[patientAddress];\n    }\n\n    //Returns all infomation about the patients blood results\n    function getPatientsBloodResults(uint index) public view requirePatient returns(uint8[13] memory){\n        return patientsBloodTest[msg.sender][index].bloodResults;\n    }\n\n    //Returns all infomation about the patients blood results\n    function getPatientsBloodResults(address patientAddress, uint8 index) public view returns(uint8[13] memory){\n        return patientsBloodTest[patientAddress][index].bloodResults;\n    }\n    \n    //Gets the length of the array for blood results\n    function getPatientsBloodResultsLength() public view returns(uint){\n        return patientsBloodTest[msg.sender].length;\n    }\n\n    //Gets the length of the array for blood results\n    function getPatientsBloodResultsLength(address patientAddress) public view returns(uint){\n        return patientsBloodTest[patientAddress].length;\n    }\n\n    /*////////////////////////////////////////////////////////////////////////////////////\n    ///////////////////////////////// Privileges /////////////////////////////////////////\n    ////////////////////////////////////////////////////////////////////////////////////*/\n\n    //Transfers the admin privileges to another address\n    function transferAdmin(address adminAddress) public requireAdmin{\n        isAdmin[adminAddress] = true;\n        isAdmin[msg.sender] = false;\n    }\n\n    function addAdmin(address adminAddress) public requireAdmin{\n        isAdmin[adminAddress] = true;\n    }\n\n    function removeAdmin(address adminAddress) public requireAdmin{\n        isAdmin[adminAddress] = false;\n    }\n\n    //Adds a new doctor to the contract\n    function addDoctor(address doctorAddress) public requireAdmin{\n        isDoctor[doctorAddress] = true;\n    }\n\n    //Remove a doctor from the contract\n    function removeDoctor(address doctorAddress) public requireAdmin{\n        isDoctor[doctorAddress] = false;\n    }\n\n    function getPrivileges() public view returns (string memory){\n\n        if(isAdmin[msg.sender]){\n            return \"Admin\";\n        }else if(isDoctor[msg.sender]){\n            return \"Doctor\";\n        }else if(patients[msg.sender].isPatient){\n            return \"Patient\";\n        }else{\n            return \"Nothing\";\n        }\n    }\n\n    /*////////////////////////////////////////////////////////////////////////////////////\n    ///////////////////////////////// Comments ///////////////////////////////////////////\n    ////////////////////////////////////////////////////////////////////////////////////*/\n\n    //Adds a new comment to the contract\n    function addComment(address patientAddress, string memory comment) public {\n        Comments memory newComment = Comments(msg.sender, patientAddress, comment, now);\n\n        doctorsComments[patientAddress].push(newComment);\n    }\n    \n    //Gets all of the comments for a patient\n    function getComment(address patientAddress) public view returns(Comments[] memory){\n        return doctorsComments[patientAddress];\n    }\n}\n",
  "sourcePath": "/Users/jordan/Documents/Development/Projects/Ethereum-Blood-Test/Truffle-Contract/contracts/ethHealthRecords.sol",
  "compiler": {
    "name": "solc",
    "version": "0.5.0+commit.1d4f565a.Emscripten.clang"
  },
  "schemaVersion": "3.0.3",
  "updatedAt": "2019-05-01T14:51:10.010Z",
  "devdoc": {
    "methods": {}
  },
  "userdoc": {
    "methods": {}
  }
}