{
  "contractName": "ethHealthRecords",
  "abi": [
    {
      "inputs": [],
      "payable": false,
      "stateMutability": "nonpayable",
      "type": "constructor",
      "signature": "constructor"
    },
    {
      "constant": false,
      "inputs": [
        {
          "name": "patientAddress",
          "type": "address"
        },
        {
          "name": "gender",
          "type": "string"
        },
        {
          "name": "age",
          "type": "uint8"
        },
        {
          "name": "height",
          "type": "uint16"
        },
        {
          "name": "weight",
          "type": "uint16"
        },
        {
          "name": "bloodType",
          "type": "string"
        }
      ],
      "name": "addPatient",
      "outputs": [],
      "payable": false,
      "stateMutability": "nonpayable",
      "type": "function",
      "signature": "0x8f51c43c"
    },
    {
      "constant": false,
      "inputs": [
        {
          "name": "patientAddress",
          "type": "address"
        },
        {
          "name": "bloodResults",
          "type": "uint8[13]"
        }
      ],
      "name": "addPatientBloodResults",
      "outputs": [],
      "payable": false,
      "stateMutability": "nonpayable",
      "type": "function",
      "signature": "0x49e51581"
    },
    {
      "constant": false,
      "inputs": [
        {
          "name": "patientAddress",
          "type": "address"
        },
        {
          "name": "newAge",
          "type": "uint8"
        }
      ],
      "name": "changeAge",
      "outputs": [],
      "payable": false,
      "stateMutability": "nonpayable",
      "type": "function",
      "signature": "0x35c8fdc3"
    },
    {
      "constant": false,
      "inputs": [
        {
          "name": "patientAddress",
          "type": "address"
        },
        {
          "name": "newHeight",
          "type": "uint16"
        }
      ],
      "name": "changeHeight",
      "outputs": [],
      "payable": false,
      "stateMutability": "nonpayable",
      "type": "function",
      "signature": "0xe58420ea"
    },
    {
      "constant": false,
      "inputs": [
        {
          "name": "patientAddress",
          "type": "address"
        },
        {
          "name": "newWeight",
          "type": "uint16"
        }
      ],
      "name": "changeWeight",
      "outputs": [],
      "payable": false,
      "stateMutability": "nonpayable",
      "type": "function",
      "signature": "0xab991cac"
    },
    {
      "constant": true,
      "inputs": [
        {
          "name": "patientAddress",
          "type": "address"
        }
      ],
      "name": "isPatient",
      "outputs": [
        {
          "name": "",
          "type": "bool"
        }
      ],
      "payable": false,
      "stateMutability": "view",
      "type": "function",
      "signature": "0x8f9c79ed"
    },
    {
      "constant": true,
      "inputs": [],
      "name": "getPatientInfomation",
      "outputs": [
        {
          "components": [
            {
              "name": "gender",
              "type": "string"
            },
            {
              "name": "age",
              "type": "uint8"
            },
            {
              "name": "height",
              "type": "uint16"
            },
            {
              "name": "weight",
              "type": "uint16"
            },
            {
              "name": "bloodType",
              "type": "string"
            },
            {
              "name": "isPatient",
              "type": "bool"
            },
            {
              "name": "timestamp",
              "type": "uint256"
            }
          ],
          "name": "",
          "type": "tuple"
        }
      ],
      "payable": false,
      "stateMutability": "view",
      "type": "function",
      "signature": "0x0860e6e3"
    },
    {
      "constant": true,
      "inputs": [
        {
          "name": "patientAddress",
          "type": "address"
        }
      ],
      "name": "getPatientInfomation",
      "outputs": [
        {
          "components": [
            {
              "name": "gender",
              "type": "string"
            },
            {
              "name": "age",
              "type": "uint8"
            },
            {
              "name": "height",
              "type": "uint16"
            },
            {
              "name": "weight",
              "type": "uint16"
            },
            {
              "name": "bloodType",
              "type": "string"
            },
            {
              "name": "isPatient",
              "type": "bool"
            },
            {
              "name": "timestamp",
              "type": "uint256"
            }
          ],
          "name": "",
          "type": "tuple"
        }
      ],
      "payable": false,
      "stateMutability": "view",
      "type": "function",
      "signature": "0xae9b235b"
    },
    {
      "constant": true,
      "inputs": [
        {
          "name": "patientAddress",
          "type": "address"
        },
        {
          "name": "index",
          "type": "uint256"
        }
      ],
      "name": "getPatientsBloodResults",
      "outputs": [
        {
          "name": "",
          "type": "uint8[13]"
        }
      ],
      "payable": false,
      "stateMutability": "view",
      "type": "function",
      "signature": "0x32dfda59"
    },
    {
      "constant": true,
      "inputs": [
        {
          "name": "index",
          "type": "uint256"
        }
      ],
      "name": "getPatientsBloodResults",
      "outputs": [
        {
          "name": "",
          "type": "uint8[13]"
        }
      ],
      "payable": false,
      "stateMutability": "view",
      "type": "function",
      "signature": "0xf361af73"
    },
    {
      "constant": true,
      "inputs": [
        {
          "name": "patientAddress",
          "type": "address"
        }
      ],
      "name": "getPatientsBloodResultsLength",
      "outputs": [
        {
          "name": "",
          "type": "uint256"
        }
      ],
      "payable": false,
      "stateMutability": "view",
      "type": "function",
      "signature": "0x72f8ae9c"
    },
    {
      "constant": true,
      "inputs": [],
      "name": "getPatientsBloodResultsLength",
      "outputs": [
        {
          "name": "",
          "type": "uint256"
        }
      ],
      "payable": false,
      "stateMutability": "view",
      "type": "function",
      "signature": "0xa9436649"
    },
    {
      "constant": false,
      "inputs": [
        {
          "name": "adminAddress",
          "type": "address"
        }
      ],
      "name": "transferAdmin",
      "outputs": [],
      "payable": false,
      "stateMutability": "nonpayable",
      "type": "function",
      "signature": "0x75829def"
    },
    {
      "constant": false,
      "inputs": [
        {
          "name": "adminAddress",
          "type": "address"
        }
      ],
      "name": "addAdmin",
      "outputs": [],
      "payable": false,
      "stateMutability": "nonpayable",
      "type": "function",
      "signature": "0x70480275"
    },
    {
      "constant": false,
      "inputs": [
        {
          "name": "adminAddress",
          "type": "address"
        }
      ],
      "name": "removeAdmin",
      "outputs": [],
      "payable": false,
      "stateMutability": "nonpayable",
      "type": "function",
      "signature": "0x1785f53c"
    },
    {
      "constant": false,
      "inputs": [
        {
          "name": "doctorAddress",
          "type": "address"
        }
      ],
      "name": "addDoctor",
      "outputs": [],
      "payable": false,
      "stateMutability": "nonpayable",
      "type": "function",
      "signature": "0x4780468f"
    },
    {
      "constant": false,
      "inputs": [
        {
          "name": "doctorAddress",
          "type": "address"
        }
      ],
      "name": "removeDoctor",
      "outputs": [],
      "payable": false,
      "stateMutability": "nonpayable",
      "type": "function",
      "signature": "0x98fc90e9"
    },
    {
      "constant": true,
      "inputs": [],
      "name": "getPrivileges",
      "outputs": [
        {
          "name": "",
          "type": "string"
        }
      ],
      "payable": false,
      "stateMutability": "view",
      "type": "function",
      "signature": "0x357b39e1"
    },
    {
      "constant": false,
      "inputs": [
        {
          "name": "patientAddress",
          "type": "address"
        },
        {
          "name": "comment",
          "type": "string"
        }
      ],
      "name": "addComment",
      "outputs": [],
      "payable": false,
      "stateMutability": "nonpayable",
      "type": "function",
      "signature": "0xe2005b98"
    },
    {
      "constant": true,
      "inputs": [
        {
          "name": "patientAddress",
          "type": "address"
        }
      ],
      "name": "getComment",
      "outputs": [
        {
          "components": [
            {
              "name": "doctorAddress",
              "type": "address"
            },
            {
              "name": "patientAddress",
              "type": "address"
            },
            {
              "name": "comment",
              "type": "string"
            },
            {
              "name": "timestamp",
              "type": "uint256"
            }
          ],
          "name": "",
          "type": "tuple[]"
        }
      ],
      "payable": false,
      "stateMutability": "view",
      "type": "function",
      "signature": "0xf6bb0cf1"
    }
  ],
  "bytecode": "0x608060405234801561001057600080fd5b5060018060003373ffffffffffffffffffffffffffffffffffffffff1673ffffffffffffffffffffffffffffffffffffffff16815260200190815260200160002060006101000a81548160ff021916908315150217905550612b00806100776000396000f3fe608060405260043610610112576000357c0100000000000000000000000000000000000000000000000000000000900463ffffffff1680630860e6e3146101175780631785f53c1461014257806332dfda591461016b578063357b39e1146101a857806335c8fdc3146101d35780634780468f146101fc57806349e5158114610225578063704802751461024e57806372f8ae9c1461027757806375829def146102b45780638f51c43c146102dd5780638f9c79ed1461030657806398fc90e914610343578063a94366491461036c578063ab991cac14610397578063ae9b235b146103c0578063e2005b98146103fd578063e58420ea14610426578063f361af731461044f578063f6bb0cf11461048c575b600080fd5b34801561012357600080fd5b5061012c6104c9565b60405161013991906128c4565b60405180910390f35b34801561014e57600080fd5b506101696004803603610164919081019061227e565b610778565b005b34801561017757600080fd5b50610192600480360361018d919081019061242d565b610868565b60405161019f919061280b565b60405180910390f35b3480156101b457600080fd5b506101bd610937565b6040516101ca9190612842565b60405180910390f35b3480156101df57600080fd5b506101fa60048036036101f59190810190612469565b610b24565b005b34801561020857600080fd5b50610223600480360361021e919081019061227e565b610cb9565b005b34801561023157600080fd5b5061024c600480360361024791908101906122a7565b610da8565b005b34801561025a57600080fd5b506102756004803603610270919081019061227e565b610f3f565b005b34801561028357600080fd5b5061029e6004803603610299919081019061227e565b61102e565b6040516102ab91906128e6565b60405180910390f35b3480156102c057600080fd5b506102db60048036036102d6919081019061227e565b61107a565b005b3480156102e957600080fd5b5061030460048036036102ff9190810190612338565b6111c1565b005b34801561031257600080fd5b5061032d6004803603610328919081019061227e565b611407565b60405161033a9190612827565b60405180910390f35b34801561034f57600080fd5b5061036a6004803603610365919081019061227e565b611460565b005b34801561037857600080fd5b5061038161154f565b60405161038e91906128e6565b60405180910390f35b3480156103a357600080fd5b506103be60048036036103b991908101906123f1565b611599565b005b3480156103cc57600080fd5b506103e760048036036103e2919081019061227e565b6116e9565b6040516103f491906128c4565b60405180910390f35b34801561040957600080fd5b50610424600480360361041f91908101906122e4565b611909565b005b34801561043257600080fd5b5061044d600480360361044891908101906123f1565b611a89565b005b34801561045b57600080fd5b50610476600480360361047191908101906124a5565b611bd9565b604051610483919061280b565b60405180910390f35b34801561049857600080fd5b506104b360048036036104ae919081019061227e565b611d38565b6040516104c091906127e9565b60405180910390f35b6104d1611f2f565b600260003373ffffffffffffffffffffffffffffffffffffffff1673ffffffffffffffffffffffffffffffffffffffff16815260200190815260200160002060030160009054906101000a900460ff161515610562576040517f08c379a000000000000000000000000000000000000000000000000000000000815260040161055990612884565b60405180910390fd5b600260003373ffffffffffffffffffffffffffffffffffffffff1673ffffffffffffffffffffffffffffffffffffffff16815260200190815260200160002060e06040519081016040529081600082018054600181600116156101000203166002900480601f0160208091040260200160405190810160405280929190818152602001828054600181600116156101000203166002900480156106465780601f1061061b57610100808354040283529160200191610646565b820191906000526020600020905b81548152906001019060200180831161062957829003601f168201915b505050505081526020016001820160009054906101000a900460ff1660ff1660ff1681526020016001820160019054906101000a900461ffff1661ffff1661ffff1681526020016001820160039054906101000a900461ffff1661ffff1661ffff168152602001600282018054600181600116156101000203166002900480601f0160208091040260200160405190810160405280929190818152602001828054600181600116156101000203166002900480156107455780601f1061071a57610100808354040283529160200191610745565b820191906000526020600020905b81548152906001019060200180831161072857829003601f168201915b505050505081526020016003820160009054906101000a900460ff16151515158152602001600482015481525050905090565b60011515600160003373ffffffffffffffffffffffffffffffffffffffff1673ffffffffffffffffffffffffffffffffffffffff16815260200190815260200160002060009054906101000a900460ff16151514151561080d576040517f08c379a0000000000000000000000000000000000000000000000000000000008152600401610804906128a4565b60405180910390fd5b6000600160008373ffffffffffffffffffffffffffffffffffffffff1673ffffffffffffffffffffffffffffffffffffffff16815260200190815260200160002060006101000a81548160ff02191690831515021790555050565b610870611f7a565b600360008473ffffffffffffffffffffffffffffffffffffffff1673ffffffffffffffffffffffffffffffffffffffff168152602001908152602001600020828154811015156108bc57fe5b9060005260206000209060020201600001600d806020026040519081016040528092919082600d801561092a576020028201916000905b82829054906101000a900460ff1660ff16815260200190600101906020826000010492830192600103820291508084116108f35790505b5050505050905092915050565b6060600160003373ffffffffffffffffffffffffffffffffffffffff1673ffffffffffffffffffffffffffffffffffffffff16815260200190815260200160002060009054906101000a900460ff16156109c8576040805190810160405280600581526020017f41646d696e0000000000000000000000000000000000000000000000000000008152509050610b21565b6000803373ffffffffffffffffffffffffffffffffffffffff1673ffffffffffffffffffffffffffffffffffffffff16815260200190815260200160002060009054906101000a900460ff1615610a56576040805190810160405280600681526020017f446f63746f7200000000000000000000000000000000000000000000000000008152509050610b21565b600260003373ffffffffffffffffffffffffffffffffffffffff1673ffffffffffffffffffffffffffffffffffffffff16815260200190815260200160002060030160009054906101000a900460ff1615610ae8576040805190810160405280600781526020017f50617469656e74000000000000000000000000000000000000000000000000008152509050610b21565b6040805190810160405280600781526020017f4e6f7468696e670000000000000000000000000000000000000000000000000081525090505b90565b600115156000803373ffffffffffffffffffffffffffffffffffffffff1673ffffffffffffffffffffffffffffffffffffffff16815260200190815260200160002060009054906101000a900460ff1615151480610bd2575060011515600160003373ffffffffffffffffffffffffffffffffffffffff1673ffffffffffffffffffffffffffffffffffffffff16815260200190815260200160002060009054906101000a900460ff161515145b1515610c13576040517f08c379a0000000000000000000000000000000000000000000000000000000008152600401610c0a90612864565b60405180910390fd5b80600260008473ffffffffffffffffffffffffffffffffffffffff1673ffffffffffffffffffffffffffffffffffffffff16815260200190815260200160002060010160006101000a81548160ff021916908360ff16021790555042600260008473ffffffffffffffffffffffffffffffffffffffff1673ffffffffffffffffffffffffffffffffffffffff168152602001908152602001600020600401819055505050565b60011515600160003373ffffffffffffffffffffffffffffffffffffffff1673ffffffffffffffffffffffffffffffffffffffff16815260200190815260200160002060009054906101000a900460ff161515141515610d4e576040517f08c379a0000000000000000000000000000000000000000000000000000000008152600401610d45906128a4565b60405180910390fd5b60016000808373ffffffffffffffffffffffffffffffffffffffff1673ffffffffffffffffffffffffffffffffffffffff16815260200190815260200160002060006101000a81548160ff02191690831515021790555050565b600115156000803373ffffffffffffffffffffffffffffffffffffffff1673ffffffffffffffffffffffffffffffffffffffff16815260200190815260200160002060009054906101000a900460ff1615151480610e56575060011515600160003373ffffffffffffffffffffffffffffffffffffffff1673ffffffffffffffffffffffffffffffffffffffff16815260200190815260200160002060009054906101000a900460ff161515145b1515610e97576040517f08c379a0000000000000000000000000000000000000000000000000000000008152600401610e8e90612864565b60405180910390fd5b600360008373ffffffffffffffffffffffffffffffffffffffff1673ffffffffffffffffffffffffffffffffffffffff1681526020019081526020016000206040805190810160405280838152602001428152509080600181540180825580915050906001820390600052602060002090600202016000909192909190915060008201518160000190600d610f2d929190611f9e565b50602082015181600101555050505050565b60011515600160003373ffffffffffffffffffffffffffffffffffffffff1673ffffffffffffffffffffffffffffffffffffffff16815260200190815260200160002060009054906101000a900460ff161515141515610fd4576040517f08c379a0000000000000000000000000000000000000000000000000000000008152600401610fcb906128a4565b60405180910390fd5b60018060008373ffffffffffffffffffffffffffffffffffffffff1673ffffffffffffffffffffffffffffffffffffffff16815260200190815260200160002060006101000a81548160ff02191690831515021790555050565b6000600360008373ffffffffffffffffffffffffffffffffffffffff1673ffffffffffffffffffffffffffffffffffffffff168152602001908152602001600020805490509050919050565b60011515600160003373ffffffffffffffffffffffffffffffffffffffff1673ffffffffffffffffffffffffffffffffffffffff16815260200190815260200160002060009054906101000a900460ff16151514151561110f576040517f08c379a0000000000000000000000000000000000000000000000000000000008152600401611106906128a4565b60405180910390fd5b60018060008373ffffffffffffffffffffffffffffffffffffffff1673ffffffffffffffffffffffffffffffffffffffff16815260200190815260200160002060006101000a81548160ff0219169083151502179055506000600160003373ffffffffffffffffffffffffffffffffffffffff1673ffffffffffffffffffffffffffffffffffffffff16815260200190815260200160002060006101000a81548160ff02191690831515021790555050565b600115156000803373ffffffffffffffffffffffffffffffffffffffff1673ffffffffffffffffffffffffffffffffffffffff16815260200190815260200160002060009054906101000a900460ff161515148061126f575060011515600160003373ffffffffffffffffffffffffffffffffffffffff1673ffffffffffffffffffffffffffffffffffffffff16815260200190815260200160002060009054906101000a900460ff161515145b15156112b0576040517f08c379a00000000000000000000000000000000000000000000000000000000081526004016112a790612864565b60405180910390fd5b60e0604051908101604052808681526020018560ff1681526020018461ffff1681526020018361ffff16815260200182815260200160011515815260200142815250600260008873ffffffffffffffffffffffffffffffffffffffff1673ffffffffffffffffffffffffffffffffffffffff168152602001908152602001600020600082015181600001908051906020019061134d929190612038565b5060208201518160010160006101000a81548160ff021916908360ff16021790555060408201518160010160016101000a81548161ffff021916908361ffff16021790555060608201518160010160036101000a81548161ffff021916908361ffff16021790555060808201518160020190805190602001906113d1929190612038565b5060a08201518160030160006101000a81548160ff02191690831515021790555060c08201518160040155905050505050505050565b6000600260008373ffffffffffffffffffffffffffffffffffffffff1673ffffffffffffffffffffffffffffffffffffffff16815260200190815260200160002060030160009054906101000a900460ff169050919050565b60011515600160003373ffffffffffffffffffffffffffffffffffffffff1673ffffffffffffffffffffffffffffffffffffffff16815260200190815260200160002060009054906101000a900460ff1615151415156114f5576040517f08c379a00000000000000000000000000000000000000000000000000000000081526004016114ec906128a4565b60405180910390fd5b60008060008373ffffffffffffffffffffffffffffffffffffffff1673ffffffffffffffffffffffffffffffffffffffff16815260200190815260200160002060006101000a81548160ff02191690831515021790555050565b6000600360003373ffffffffffffffffffffffffffffffffffffffff1673ffffffffffffffffffffffffffffffffffffffff16815260200190815260200160002080549050905090565b600115156000803373ffffffffffffffffffffffffffffffffffffffff1673ffffffffffffffffffffffffffffffffffffffff16815260200190815260200160002060009054906101000a900460ff1615151480611647575060011515600160003373ffffffffffffffffffffffffffffffffffffffff1673ffffffffffffffffffffffffffffffffffffffff16815260200190815260200160002060009054906101000a900460ff161515145b1515611688576040517f08c379a000000000000000000000000000000000000000000000000000000000815260040161167f90612864565b60405180910390fd5b80600260008473ffffffffffffffffffffffffffffffffffffffff1673ffffffffffffffffffffffffffffffffffffffff16815260200190815260200160002060010160036101000a81548161ffff021916908361ffff1602179055505050565b6116f1611f2f565b600260008373ffffffffffffffffffffffffffffffffffffffff1673ffffffffffffffffffffffffffffffffffffffff16815260200190815260200160002060e06040519081016040529081600082018054600181600116156101000203166002900480601f0160208091040260200160405190810160405280929190818152602001828054600181600116156101000203166002900480156117d55780601f106117aa576101008083540402835291602001916117d5565b820191906000526020600020905b8154815290600101906020018083116117b857829003601f168201915b505050505081526020016001820160009054906101000a900460ff1660ff1660ff1681526020016001820160019054906101000a900461ffff1661ffff1661ffff1681526020016001820160039054906101000a900461ffff1661ffff1661ffff168152602001600282018054600181600116156101000203166002900480601f0160208091040260200160405190810160405280929190818152602001828054600181600116156101000203166002900480156118d45780601f106118a9576101008083540402835291602001916118d4565b820191906000526020600020905b8154815290600101906020018083116118b757829003601f168201915b505050505081526020016003820160009054906101000a900460ff161515151581526020016004820154815250509050919050565b6119116120b8565b6080604051908101604052803373ffffffffffffffffffffffffffffffffffffffff1681526020018473ffffffffffffffffffffffffffffffffffffffff168152602001838152602001428152509050600460008473ffffffffffffffffffffffffffffffffffffffff1673ffffffffffffffffffffffffffffffffffffffff168152602001908152602001600020819080600181540180825580915050906001820390600052602060002090600402016000909192909190915060008201518160000160006101000a81548173ffffffffffffffffffffffffffffffffffffffff021916908373ffffffffffffffffffffffffffffffffffffffff16021790555060208201518160010160006101000a81548173ffffffffffffffffffffffffffffffffffffffff021916908373ffffffffffffffffffffffffffffffffffffffff1602179055506040820151816002019080519060200190611a76929190612038565b5060608201518160030155505050505050565b600115156000803373ffffffffffffffffffffffffffffffffffffffff1673ffffffffffffffffffffffffffffffffffffffff16815260200190815260200160002060009054906101000a900460ff1615151480611b37575060011515600160003373ffffffffffffffffffffffffffffffffffffffff1673ffffffffffffffffffffffffffffffffffffffff16815260200190815260200160002060009054906101000a900460ff161515145b1515611b78576040517f08c379a0000000000000000000000000000000000000000000000000000000008152600401611b6f90612864565b60405180910390fd5b80600260008473ffffffffffffffffffffffffffffffffffffffff1673ffffffffffffffffffffffffffffffffffffffff16815260200190815260200160002060010160016101000a81548161ffff021916908361ffff1602179055505050565b611be1611f7a565b600260003373ffffffffffffffffffffffffffffffffffffffff1673ffffffffffffffffffffffffffffffffffffffff16815260200190815260200160002060030160009054906101000a900460ff161515611c72576040517f08c379a0000000000000000000000000000000000000000000000000000000008152600401611c6990612884565b60405180910390fd5b600360003373ffffffffffffffffffffffffffffffffffffffff1673ffffffffffffffffffffffffffffffffffffffff16815260200190815260200160002082815481101515611cbe57fe5b9060005260206000209060020201600001600d806020026040519081016040528092919082600d8015611d2c576020028201916000905b82829054906101000a900460ff1660ff1681526020019060010190602082600001049283019260010382029150808411611cf55790505b50505050509050919050565b6060600460008373ffffffffffffffffffffffffffffffffffffffff1673ffffffffffffffffffffffffffffffffffffffff168152602001908152602001600020805480602002602001604051908101604052809291908181526020016000905b82821015611f245783829060005260206000209060040201608060405190810160405290816000820160009054906101000a900473ffffffffffffffffffffffffffffffffffffffff1673ffffffffffffffffffffffffffffffffffffffff1673ffffffffffffffffffffffffffffffffffffffff1681526020016001820160009054906101000a900473ffffffffffffffffffffffffffffffffffffffff1673ffffffffffffffffffffffffffffffffffffffff1673ffffffffffffffffffffffffffffffffffffffff168152602001600282018054600181600116156101000203166002900480601f016020809104026020016040519081016040528092919081815260200182805460018160011615610100020316600290048015611f025780601f10611ed757610100808354040283529160200191611f02565b820191906000526020600020905b815481529060010190602001808311611ee557829003601f168201915b5050505050815260200160038201548152505081526020019060010190611d99565b505050509050919050565b60e06040519081016040528060608152602001600060ff168152602001600061ffff168152602001600061ffff16815260200160608152602001600015158152602001600081525090565b6101a060405190810160405280600d90602082028038833980820191505090505090565b82600d601f016020900481019282156120275791602002820160005b83821115611ff857835183826101000a81548160ff021916908360ff1602179055509260200192600101602081600001049283019260010302611fba565b80156120255782816101000a81549060ff0219169055600101602081600001049283019260010302611ff8565b505b509050612034919061210d565b5090565b828054600181600116156101000203166002900490600052602060002090601f016020900481019282601f1061207957805160ff19168380011785556120a7565b828001600101855582156120a7579182015b828111156120a657825182559160200191906001019061208b565b5b5090506120b4919061213d565b5090565b608060405190810160405280600073ffffffffffffffffffffffffffffffffffffffff168152602001600073ffffffffffffffffffffffffffffffffffffffff16815260200160608152602001600081525090565b61213a91905b8082111561213657600081816101000a81549060ff021916905550600101612113565b5090565b90565b61215f91905b8082111561215b576000816000905550600101612143565b5090565b90565b600061216e8235612a3c565b905092915050565b600082601f830112151561218957600080fd5b600d61219c6121978261292e565b612901565b915081838560208402820111156121b257600080fd5b60005b838110156121e257816121c8888261226a565b8452602084019350602083019250506001810190506121b5565b5050505092915050565b600082601f83011215156121ff57600080fd5b813561221261220d82612950565b612901565b9150808252602083016020830185838301111561222e57600080fd5b612239838284612a73565b50505092915050565b600061224e8235612a4e565b905092915050565b60006122628235612a5c565b905092915050565b60006122768235612a66565b905092915050565b60006020828403121561229057600080fd5b600061229e84828501612162565b91505092915050565b6000806101c083850312156122bb57600080fd5b60006122c985828601612162565b92505060206122da85828601612176565b9150509250929050565b600080604083850312156122f757600080fd5b600061230585828601612162565b925050602083013567ffffffffffffffff81111561232257600080fd5b61232e858286016121ec565b9150509250929050565b60008060008060008060c0878903121561235157600080fd5b600061235f89828a01612162565b965050602087013567ffffffffffffffff81111561237c57600080fd5b61238889828a016121ec565b955050604061239989828a0161226a565b94505060606123aa89828a01612242565b93505060806123bb89828a01612242565b92505060a087013567ffffffffffffffff8111156123d857600080fd5b6123e489828a016121ec565b9150509295509295509295565b6000806040838503121561240457600080fd5b600061241285828601612162565b925050602061242385828601612242565b9150509250929050565b6000806040838503121561244057600080fd5b600061244e85828601612162565b925050602061245f85828601612256565b9150509250929050565b6000806040838503121561247c57600080fd5b600061248a85828601612162565b925050602061249b8582860161226a565b9150509250929050565b6000602082840312156124b757600080fd5b60006124c584828501612256565b91505092915050565b6124d7816129d9565b82525050565b60006124e882612993565b808452602084019350836020820285016125018561297c565b60005b8481101561253a57838303885261251c8383516126b6565b9250612527826129bf565b9150602088019750600181019050612504565b508196508694505050505092915050565b6125548161299e565b61255d82612989565b60005b8281101561258f576125738583516127da565b61257c826129cc565b9150602085019450600181019050612560565b5050505050565b61259f816129eb565b82525050565b60006125b0826129b4565b8084526125c4816020860160208601612a82565b6125cd81612ab5565b602085010191505092915050565b60006125e6826129a9565b8084526125fa816020860160208601612a82565b61260381612ab5565b602085010191505092915050565b6000601b82527f4d696e696d756d2050726976696c656765733a20446f63746f727300000000006020830152604082019050919050565b6000601b82527f4d696e696d756d2050726976696c656765733a2050617469656e7400000000006020830152604082019050919050565b6000601982527f4d696e696d756d2050726976696c656765733a2041646d696e000000000000006020830152604082019050919050565b60006080830160008301516126ce60008601826124ce565b5060208301516126e160208601826124ce565b50604083015184820360408601526126f982826125db565b915050606083015161270e60608601826127cb565b508091505092915050565b600060e083016000830151848203600086015261273682826125db565b915050602083015161274b60208601826127da565b50604083015161275e60408601826127bc565b50606083015161277160608601826127bc565b506080830151848203608086015261278982826125db565b91505060a083015161279e60a0860182612596565b5060c08301516127b160c08601826127cb565b508091505092915050565b6127c5816129f7565b82525050565b6127d481612a25565b82525050565b6127e381612a2f565b82525050565b6000602082019050818103600083015261280381846124dd565b905092915050565b60006101a082019050612821600083018461254b565b92915050565b600060208201905061283c6000830184612596565b92915050565b6000602082019050818103600083015261285c81846125a5565b905092915050565b6000602082019050818103600083015261287d81612611565b9050919050565b6000602082019050818103600083015261289d81612648565b9050919050565b600060208201905081810360008301526128bd8161267f565b9050919050565b600060208201905081810360008301526128de8184612719565b905092915050565b60006020820190506128fb60008301846127cb565b92915050565b6000604051905081810181811067ffffffffffffffff8211171561292457600080fd5b8060405250919050565b600067ffffffffffffffff82111561294557600080fd5b602082029050919050565b600067ffffffffffffffff82111561296757600080fd5b601f19601f8301169050602081019050919050565b6000602082019050919050565b6000819050919050565b600081519050919050565b6000600d9050919050565b600081519050919050565b600081519050919050565b6000602082019050919050565b6000602082019050919050565b60006129e482612a05565b9050919050565b60008115159050919050565b600061ffff82169050919050565b600073ffffffffffffffffffffffffffffffffffffffff82169050919050565b6000819050919050565b600060ff82169050919050565b6000612a4782612a05565b9050919050565b600061ffff82169050919050565b6000819050919050565b600060ff82169050919050565b82818337600083830152505050565b60005b83811015612aa0578082015181840152602081019050612a85565b83811115612aaf576000848401525b50505050565b6000601f19601f830116905091905056fea265627a7a723058203364feddd464a4975d96dcc3b367d0fc269218c65fe197e1f57af9a8dd58f9ad6c6578706572696d656e74616cf50037",
  "source": "pragma solidity ^0.5;\npragma experimental ABIEncoderV2;\n\ncontract ethHealthRecords{\n    \n    /*\n    Blood Array layout:\n        Blood[0] = hemoglobin   // 115 - 165\n        Blood[1] = White Blood   // 4 - 11\n        Blood[2] = Platelet     // 150 - 450\n        Blood[3] = Red Blood     // 38 - 58      (divid by 10)\n        Blood[4] = Haematocrit  // 37 - 47      (divide by 100)\n        Blood[5] = MCV          // 76 - 98\n        Blood[6] = MCH          // 27 - 32\n        Blood[7] = MCHC         // 300 - 360\n        Blood[8] = Neutrophil   // 2 - 7\n        Blood[9] = Lymphocyte   // 1 - 4\n        Blood[10] = Monocyte    // 2 - 8        (divide by 10)\n        Blood[11] = Eosinophil  // 0 - 4        (divide by 10)\n        Blood[12] = Basophil    // 0 - 1        (divide by 10)\n    */\n\n    struct PatientInfomation{\n        string gender;\n        uint8 age;\n        uint16 height;\n        uint16 weight;\n        string bloodType;\n        bool isPatient;\n        uint timestamp;\n    }\n    \n    struct PatientsBloodInfomation{\n        uint8[13] bloodResults;\n        uint timestamp;\n    }\n\n    struct Comments{\n        address doctorAddress;\n        address patientAddress;\n        string comment;\n        uint timestamp;\n    }\n\n    mapping (address => bool) isDoctor;\n    mapping (address => bool) isAdmin;\n\n    mapping (address => PatientInfomation) patients;\n    mapping (address => PatientsBloodInfomation[]) patientsBloodTest;\n\n    mapping (address => Comments[]) doctorsComments;\n\n    //Makes the creator of the contract an admim\n    constructor() public {\n        isAdmin[msg.sender] = true;\n    }\n\n    /*////////////////////////////////////////////////////////////////////////////////////\n    ///////////////////////////////// Modifier ///////////////////////////////////////////\n    ////////////////////////////////////////////////////////////////////////////////////*/\n\n    //Modifier that requires the address to be a patient\n    modifier requirePatient(){\n        require(\n            patients[msg.sender].isPatient,\n            \"Minimum Privileges: Patient\"\n        );\n        _;\n    }\n\n    //Modifier that requires the sender to be a doctor\n    modifier requireDoctor(){\n        require(\n            isDoctor[msg.sender] == true || isAdmin[msg.sender] == true,\n            \"Minimum Privileges: Doctors\"\n        );\n        _;\n    }\n\n    //Modifier that requires the sender to be an admin\n    modifier requireAdmin(){\n        require(\n            isAdmin[msg.sender] == true,\n            \"Minimum Privileges: Admin\"\n        );\n        _;\n    }\n\n    modifier editPatientsRecords(address patientAddress){\n        if(isDoctor[msg.sender]){\n            if(patients[patientAddress].isPatient){\n                _;\n            }\n        }\n    }\n\n    /*////////////////////////////////////////////////////////////////////////////////////\n    ///////////////////////////////// Patients ///////////////////////////////////////////\n    ////////////////////////////////////////////////////////////////////////////////////*/\n\n    //Adds a new patient into the contract\n    function addPatient(address patientAddress, string memory gender, uint8 age, uint16 height, uint16 weight, string memory bloodType) public requireDoctor(){\n        patients[patientAddress] = PatientInfomation(gender, age, height, weight, bloodType,true, now);\n    }\n\n    //Adds the patients blood results to the contract\n    function addPatientBloodResults(address patientAddress, uint8[13] memory bloodResults) public requireDoctor(){\n        patientsBloodTest[patientAddress].push(PatientsBloodInfomation(bloodResults, now));\n    }\n\n    //Changes the age of the patient, also added the time the age was added\n    //this can be calculated in javascript to get an upto date age. \n    function changeAge(address patientAddress, uint8 newAge) public requireDoctor(){\n        patients[patientAddress].age = newAge;\n        patients[patientAddress].timestamp = now;\n    }\n\n    //Changes the height of the patient\n    function changeHeight(address patientAddress, uint16 newHeight) public requireDoctor(){\n        patients[patientAddress].height = newHeight;\n    }\n\n    //Changes the weight of the patient\n    function changeWeight(address patientAddress, uint16 newWeight) public requireDoctor(){\n        patients[patientAddress].weight = newWeight;\n    }\n\n    function isPatient(address patientAddress) public view returns(bool){\n        return patients[patientAddress].isPatient;\n    }\n    \n    //Returns all infomation about the patient\n    function getPatientInfomation() public view requirePatient returns(PatientInfomation memory){\n        return patients[msg.sender];\n    }\n    \n    //Returns all infomation about the patient\n    function getPatientInfomation(address patientAddress) public view returns(PatientInfomation memory){\n        return patients[patientAddress];\n    }\n\n    //Returns all infomation about the patients blood results\n    function getPatientsBloodResults(uint index) public view requirePatient returns(uint8[13] memory){\n        return patientsBloodTest[msg.sender][index].bloodResults;\n    }\n\n    //Returns all infomation about the patients blood results\n    function getPatientsBloodResults(address patientAddress, uint index) public view returns(uint8[13] memory){\n        return patientsBloodTest[patientAddress][index].bloodResults;\n    }\n    \n    //Gets the length of the array for blood results\n    function getPatientsBloodResultsLength() public view returns(uint){\n        return patientsBloodTest[msg.sender].length;\n    }\n\n    //Gets the length of the array for blood results\n    function getPatientsBloodResultsLength(address patientAddress) public view returns(uint){\n        return patientsBloodTest[patientAddress].length;\n    }\n\n    /*////////////////////////////////////////////////////////////////////////////////////\n    ///////////////////////////////// Privileges /////////////////////////////////////////\n    ////////////////////////////////////////////////////////////////////////////////////*/\n\n    //Transfers the admin privileges to another address\n    function transferAdmin(address adminAddress) public requireAdmin{\n        isAdmin[adminAddress] = true;\n        isAdmin[msg.sender] = false;\n    }\n\n    function addAdmin(address adminAddress) public requireAdmin{\n        isAdmin[adminAddress] = true;\n    }\n\n    function removeAdmin(address adminAddress) public requireAdmin{\n        isAdmin[adminAddress] = false;\n    }\n\n    //Adds a new doctor to the contract\n    function addDoctor(address doctorAddress) public requireAdmin{\n        isDoctor[doctorAddress] = true;\n    }\n\n    //Remove a doctor from the contract\n    function removeDoctor(address doctorAddress) public requireAdmin{\n        isDoctor[doctorAddress] = false;\n    }\n\n    function getPrivileges() public view returns (string memory){\n\n        if(isAdmin[msg.sender]){\n            return \"Admin\";\n        }else if(isDoctor[msg.sender]){\n            return \"Doctor\";\n        }else if(patients[msg.sender].isPatient){\n            return \"Patient\";\n        }else{\n            return \"Nothing\";\n        }\n    }\n\n    /*////////////////////////////////////////////////////////////////////////////////////\n    ///////////////////////////////// Comments ///////////////////////////////////////////\n    ////////////////////////////////////////////////////////////////////////////////////*/\n\n    //Adds a new comment to the contract\n    function addComment(address patientAddress, string memory comment) public {\n        Comments memory newComment = Comments(msg.sender, patientAddress, comment, now);\n\n        doctorsComments[patientAddress].push(newComment);\n    }\n    \n    //Gets all of the comments for a patient\n    function getComment(address patientAddress) public view returns(Comments[] memory){\n        return doctorsComments[patientAddress];\n    }\n}\n",
  "sourcePath": "/Users/jordan/Documents/Development/Projects/Ethereum-Blood-Test/Truffle-Contract/contracts/ethHealthRecords.sol",
  "compiler": {
    "name": "solc",
    "version": "0.5.0+commit.1d4f565a.Emscripten.clang"
  },
  "schemaVersion": "3.0.3",
  "updatedAt": "2019-05-02T12:15:38.147Z",
  "devdoc": {
    "methods": {}
  },
  "userdoc": {
    "methods": {}
  }
}