{
  "contractName": "Patients",
  "abi": [
    {
      "constant": false,
      "inputs": [
        {
          "name": "patientAddress",
          "type": "address"
        },
        {
          "name": "gender",
          "type": "string"
        },
        {
          "name": "age",
          "type": "uint8"
        },
        {
          "name": "height",
          "type": "uint16"
        },
        {
          "name": "weight",
          "type": "uint16"
        },
        {
          "name": "bloodType",
          "type": "string"
        }
      ],
      "name": "addPatient",
      "outputs": [],
      "payable": false,
      "stateMutability": "nonpayable",
      "type": "function"
    },
    {
      "constant": false,
      "inputs": [
        {
          "name": "patientAddress",
          "type": "address"
        },
        {
          "name": "bloodResults",
          "type": "uint8[13]"
        }
      ],
      "name": "addPatientBloodResults",
      "outputs": [],
      "payable": false,
      "stateMutability": "nonpayable",
      "type": "function"
    },
    {
      "constant": false,
      "inputs": [
        {
          "name": "patientAddress",
          "type": "address"
        },
        {
          "name": "newAge",
          "type": "uint8"
        }
      ],
      "name": "changeAge",
      "outputs": [],
      "payable": false,
      "stateMutability": "nonpayable",
      "type": "function"
    },
    {
      "constant": false,
      "inputs": [
        {
          "name": "patientAddress",
          "type": "address"
        },
        {
          "name": "newHeight",
          "type": "uint16"
        }
      ],
      "name": "changeHeight",
      "outputs": [],
      "payable": false,
      "stateMutability": "nonpayable",
      "type": "function"
    },
    {
      "constant": false,
      "inputs": [
        {
          "name": "patientAddress",
          "type": "address"
        },
        {
          "name": "newWeight",
          "type": "uint16"
        }
      ],
      "name": "changeWeight",
      "outputs": [],
      "payable": false,
      "stateMutability": "nonpayable",
      "type": "function"
    },
    {
      "constant": true,
      "inputs": [
        {
          "name": "patientAddress",
          "type": "address"
        }
      ],
      "name": "isPatient",
      "outputs": [
        {
          "name": "",
          "type": "bool"
        }
      ],
      "payable": false,
      "stateMutability": "view",
      "type": "function"
    },
    {
      "constant": true,
      "inputs": [
        {
          "name": "patientAddress",
          "type": "address"
        }
      ],
      "name": "getPatientInfomation",
      "outputs": [
        {
          "components": [
            {
              "name": "gender",
              "type": "string"
            },
            {
              "name": "age",
              "type": "uint8"
            },
            {
              "name": "height",
              "type": "uint16"
            },
            {
              "name": "weight",
              "type": "uint16"
            },
            {
              "name": "bloodType",
              "type": "string"
            },
            {
              "name": "isPatient",
              "type": "bool"
            },
            {
              "name": "timestamp",
              "type": "uint256"
            }
          ],
          "name": "",
          "type": "tuple"
        }
      ],
      "payable": false,
      "stateMutability": "view",
      "type": "function"
    },
    {
      "constant": true,
      "inputs": [
        {
          "name": "patientAddress",
          "type": "address"
        },
        {
          "name": "index",
          "type": "uint256"
        }
      ],
      "name": "getPatientsBloodResults",
      "outputs": [
        {
          "name": "",
          "type": "uint8[13]"
        }
      ],
      "payable": false,
      "stateMutability": "view",
      "type": "function"
    },
    {
      "constant": true,
      "inputs": [
        {
          "name": "patientAddress",
          "type": "address"
        }
      ],
      "name": "getPatientsBloodResultsLength",
      "outputs": [
        {
          "name": "",
          "type": "uint256"
        }
      ],
      "payable": false,
      "stateMutability": "view",
      "type": "function"
    }
  ],
  "bytecode": "0x608060405234801561001057600080fd5b506111b1806100206000396000f3fe608060405260043610610099576000357c0100000000000000000000000000000000000000000000000000000000900463ffffffff16806332dfda591461009e57806335c8fdc3146100db57806349e515811461010457806372f8ae9c1461012d5780638f51c43c1461016a5780638f9c79ed14610193578063ab991cac146101d0578063ae9b235b146101f9578063e58420ea14610236575b600080fd5b3480156100aa57600080fd5b506100c560048036036100c09190810190610da8565b61025f565b6040516100d29190610f80565b60405180910390f35b3480156100e757600080fd5b5061010260048036036100fd9190810190610de4565b61032e565b005b34801561011057600080fd5b5061012b60048036036101269190810190610c76565b6103d2565b005b34801561013957600080fd5b50610154600480360361014f9190810190610c4d565b61047a565b6040516101619190610fd9565b60405180910390f35b34801561017657600080fd5b50610191600480360361018c9190810190610cb3565b6104c6565b005b34801561019f57600080fd5b506101ba60048036036101b59190810190610c4d565b61061c565b6040516101c79190610f9c565b60405180910390f35b3480156101dc57600080fd5b506101f760048036036101f29190810190610d6c565b610674565b005b34801561020557600080fd5b50610220600480360361021b9190810190610c4d565b6106d4565b60405161022d9190610fb7565b60405180910390f35b34801561024257600080fd5b5061025d60048036036102589190810190610d6c565b6108f3565b005b610267610953565b600160008473ffffffffffffffffffffffffffffffffffffffff1673ffffffffffffffffffffffffffffffffffffffff168152602001908152602001600020828154811015156102b357fe5b9060005260206000209060020201600001600d806020026040519081016040528092919082600d8015610321576020028201916000905b82829054906101000a900460ff1660ff16815260200190600101906020826000010492830192600103820291508084116102ea5790505b5050505050905092915050565b806000808473ffffffffffffffffffffffffffffffffffffffff1673ffffffffffffffffffffffffffffffffffffffff16815260200190815260200160002060010160006101000a81548160ff021916908360ff160217905550426000808473ffffffffffffffffffffffffffffffffffffffff1673ffffffffffffffffffffffffffffffffffffffff168152602001908152602001600020600401819055505050565b600160008373ffffffffffffffffffffffffffffffffffffffff1673ffffffffffffffffffffffffffffffffffffffff1681526020019081526020016000206040805190810160405280838152602001428152509080600181540180825580915050906001820390600052602060002090600202016000909192909190915060008201518160000190600d610468929190610977565b50602082015181600101555050505050565b6000600160008373ffffffffffffffffffffffffffffffffffffffff1673ffffffffffffffffffffffffffffffffffffffff168152602001908152602001600020805490509050919050565b60e0604051908101604052808681526020018560ff1681526020018461ffff1681526020018361ffff168152602001828152602001600115158152602001428152506000808873ffffffffffffffffffffffffffffffffffffffff1673ffffffffffffffffffffffffffffffffffffffff1681526020019081526020016000206000820151816000019080519060200190610562929190610a11565b5060208201518160010160006101000a81548160ff021916908360ff16021790555060408201518160010160016101000a81548161ffff021916908361ffff16021790555060608201518160010160036101000a81548161ffff021916908361ffff16021790555060808201518160020190805190602001906105e6929190610a11565b5060a08201518160030160006101000a81548160ff02191690831515021790555060c08201518160040155905050505050505050565b60008060008373ffffffffffffffffffffffffffffffffffffffff1673ffffffffffffffffffffffffffffffffffffffff16815260200190815260200160002060030160009054906101000a900460ff169050919050565b806000808473ffffffffffffffffffffffffffffffffffffffff1673ffffffffffffffffffffffffffffffffffffffff16815260200190815260200160002060010160036101000a81548161ffff021916908361ffff1602179055505050565b6106dc610a91565b6000808373ffffffffffffffffffffffffffffffffffffffff1673ffffffffffffffffffffffffffffffffffffffff16815260200190815260200160002060e06040519081016040529081600082018054600181600116156101000203166002900480601f0160208091040260200160405190810160405280929190818152602001828054600181600116156101000203166002900480156107bf5780601f10610794576101008083540402835291602001916107bf565b820191906000526020600020905b8154815290600101906020018083116107a257829003601f168201915b505050505081526020016001820160009054906101000a900460ff1660ff1660ff1681526020016001820160019054906101000a900461ffff1661ffff1661ffff1681526020016001820160039054906101000a900461ffff1661ffff1661ffff168152602001600282018054600181600116156101000203166002900480601f0160208091040260200160405190810160405280929190818152602001828054600181600116156101000203166002900480156108be5780601f10610893576101008083540402835291602001916108be565b820191906000526020600020905b8154815290600101906020018083116108a157829003601f168201915b505050505081526020016003820160009054906101000a900460ff161515151581526020016004820154815250509050919050565b806000808473ffffffffffffffffffffffffffffffffffffffff1673ffffffffffffffffffffffffffffffffffffffff16815260200190815260200160002060010160016101000a81548161ffff021916908361ffff1602179055505050565b6101a060405190810160405280600d90602082028038833980820191505090505090565b82600d601f01602090048101928215610a005791602002820160005b838211156109d157835183826101000a81548160ff021916908360ff1602179055509260200192600101602081600001049283019260010302610993565b80156109fe5782816101000a81549060ff02191690556001016020816000010492830192600103026109d1565b505b509050610a0d9190610adc565b5090565b828054600181600116156101000203166002900490600052602060002090601f016020900481019282601f10610a5257805160ff1916838001178555610a80565b82800160010185558215610a80579182015b82811115610a7f578251825591602001919060010190610a64565b5b509050610a8d9190610b0c565b5090565b60e06040519081016040528060608152602001600060ff168152602001600061ffff168152602001600061ffff16815260200160608152602001600015158152602001600081525090565b610b0991905b80821115610b0557600081816101000a81549060ff021916905550600101610ae2565b5090565b90565b610b2e91905b80821115610b2a576000816000905550600101610b12565b5090565b90565b6000610b3d82356110ed565b905092915050565b600082601f8301121515610b5857600080fd5b600d610b6b610b6682611021565b610ff4565b91508183856020840282011115610b8157600080fd5b60005b83811015610bb15781610b978882610c39565b845260208401935060208301925050600181019050610b84565b5050505092915050565b600082601f8301121515610bce57600080fd5b8135610be1610bdc82611043565b610ff4565b91508082526020830160208301858383011115610bfd57600080fd5b610c08838284611124565b50505092915050565b6000610c1d82356110ff565b905092915050565b6000610c31823561110d565b905092915050565b6000610c458235611117565b905092915050565b600060208284031215610c5f57600080fd5b6000610c6d84828501610b31565b91505092915050565b6000806101c08385031215610c8a57600080fd5b6000610c9885828601610b31565b9250506020610ca985828601610b45565b9150509250929050565b60008060008060008060c08789031215610ccc57600080fd5b6000610cda89828a01610b31565b965050602087013567ffffffffffffffff811115610cf757600080fd5b610d0389828a01610bbb565b9550506040610d1489828a01610c39565b9450506060610d2589828a01610c11565b9350506080610d3689828a01610c11565b92505060a087013567ffffffffffffffff811115610d5357600080fd5b610d5f89828a01610bbb565b9150509295509295509295565b60008060408385031215610d7f57600080fd5b6000610d8d85828601610b31565b9250506020610d9e85828601610c11565b9150509250929050565b60008060408385031215610dbb57600080fd5b6000610dc985828601610b31565b9250506020610dda85828601610c25565b9150509250929050565b60008060408385031215610df757600080fd5b6000610e0585828601610b31565b9250506020610e1685828601610c39565b9150509250929050565b610e2981611079565b610e328261106f565b60005b82811015610e6457610e48858351610f71565b610e518261108f565b9150602085019450600181019050610e35565b5050505050565b610e748161109c565b82525050565b6000610e8582611084565b808452610e99816020860160208601611133565b610ea281611166565b602085010191505092915050565b600060e0830160008301518482036000860152610ecd8282610e7a565b9150506020830151610ee26020860182610f71565b506040830151610ef56040860182610f53565b506060830151610f086060860182610f53565b5060808301518482036080860152610f208282610e7a565b91505060a0830151610f3560a0860182610e6b565b5060c0830151610f4860c0860182610f62565b508091505092915050565b610f5c816110a8565b82525050565b610f6b816110d6565b82525050565b610f7a816110e0565b82525050565b60006101a082019050610f966000830184610e20565b92915050565b6000602082019050610fb16000830184610e6b565b92915050565b60006020820190508181036000830152610fd18184610eb0565b905092915050565b6000602082019050610fee6000830184610f62565b92915050565b6000604051905081810181811067ffffffffffffffff8211171561101757600080fd5b8060405250919050565b600067ffffffffffffffff82111561103857600080fd5b602082029050919050565b600067ffffffffffffffff82111561105a57600080fd5b601f19601f8301169050602081019050919050565b6000819050919050565b6000600d9050919050565b600081519050919050565b6000602082019050919050565b60008115159050919050565b600061ffff82169050919050565b600073ffffffffffffffffffffffffffffffffffffffff82169050919050565b6000819050919050565b600060ff82169050919050565b60006110f8826110b6565b9050919050565b600061ffff82169050919050565b6000819050919050565b600060ff82169050919050565b82818337600083830152505050565b60005b83811015611151578082015181840152602081019050611136565b83811115611160576000848401525b50505050565b6000601f19601f830116905091905056fea265627a7a7230582036af478b7bf485afee6686da7a17b19518d63ce42dff1cecb728d47c91791c0e6c6578706572696d656e74616cf50037",
  "source": "pragma solidity ^0.5;\npragma experimental ABIEncoderV2;\n\ncontract Patients{\n\n    /*\n    Blood Array layout:\n        Blood[0] = hemoglobin   // 115 - 165\n        Blood[1] = whiteBlood   // 4 - 11\n        Blood[2] = platelet     // 150 - 450\n        Blood[3] = redBlood     // 38 - 58      (divid by 10)\n        Blood[4] = haematocrit  // 37 - 47      (divide by 100)\n        Blood[5] = MCV          // 76 - 98\n        Blood[6] = MCH          // 27 - 32\n        Blood[7] = MCHC         // 300 - 360\n        Blood[8] = neutrophil   // 2 - 7\n        Blood[9] = lymphocyte   // 1 - 4\n        Blood[10] = monocyte    // 2 - 8        (divide by 10)\n        Blood[11] = eosinophil  // 0 - 4        (divide by 10)\n        Blood[12] = basophil    // 0 - 1        (divide by 10)\n    */\n\n    struct PatientInfomation{\n        string gender;\n        uint8 age;\n        uint16 height;\n        uint16 weight;\n        string bloodType;\n        bool isPatient;\n        uint timestamp;\n    }\n    \n    struct PatientsBloodInfomation{\n        uint8[13] bloodResults;\n        uint timestamp;\n    }\n\n    mapping (address => PatientInfomation) patients;\n    mapping (address => PatientsBloodInfomation[]) patientsBloodTest;\n\n    //Adds a new patient into the contract\n    function addPatient(address patientAddress, string memory gender, uint8 age, uint16 height, uint16 weight, string memory bloodType) public{\n        patients[patientAddress] = PatientInfomation(gender, age, height, weight, bloodType,true, now);\n    }\n\n    //Adds the patients blood results to the contract\n    function addPatientBloodResults(address patientAddress, uint8[13] memory bloodResults) public{\n        patientsBloodTest[patientAddress].push(PatientsBloodInfomation(bloodResults, now));\n    }\n\n    //Changes the age of the patient, also added the time the age was added\n    //this can be calculated in javascript to get an upto date age. \n    function changeAge(address patientAddress, uint8 newAge) public{\n        patients[patientAddress].age = newAge;\n        patients[patientAddress].timestamp = now;\n    }\n\n    //Changes the height of the patient\n    function changeHeight(address patientAddress, uint16 newHeight) public{\n        patients[patientAddress].height = newHeight;\n    }\n\n    //Changes the weight of the patient\n    function changeWeight(address patientAddress, uint16 newWeight) public{\n        patients[patientAddress].weight = newWeight;\n    }\n\n    function isPatient(address patientAddress) public view returns(bool){\n        return patients[patientAddress].isPatient;\n    }\n\n    //Returns all infomation about the patient\n    function getPatientInfomation(address patientAddress) public view returns(PatientInfomation memory){\n        return patients[patientAddress];\n    }\n\n    //Returns all infomation about the patients blood results\n    function getPatientsBloodResults(address patientAddress, uint index) public view returns(uint8[13] memory){\n        return patientsBloodTest[patientAddress][index].bloodResults;\n    }\n    \n    function getPatientsBloodResultsLength(address patientAddress) public view returns(uint){\n        return patientsBloodTest[patientAddress].length;\n    }\n}\n",
  "sourcePath": "/Users/jordan/Documents/Development/Projects/Ethereum-Blood-Test/Truffle-Contract/contracts/Patients.sol",
  "compiler": {
    "name": "solc",
    "version": "0.5.0+commit.1d4f565a.Emscripten.clang"
  },
  "schemaVersion": "3.0.3",
  "updatedAt": "2019-05-02T12:13:25.431Z",
  "devdoc": {
    "methods": {}
  },
  "userdoc": {
    "methods": {}
  }
}