{
  "contractName": "Privileges",
  "abi": [
    {
      "inputs": [],
      "payable": false,
      "stateMutability": "nonpayable",
      "type": "constructor"
    },
    {
      "constant": false,
      "inputs": [
        {
          "name": "adminAddress",
          "type": "address"
        }
      ],
      "name": "transferAdmin",
      "outputs": [],
      "payable": false,
      "stateMutability": "nonpayable",
      "type": "function"
    },
    {
      "constant": false,
      "inputs": [
        {
          "name": "adminAddress",
          "type": "address"
        }
      ],
      "name": "addAdmin",
      "outputs": [],
      "payable": false,
      "stateMutability": "nonpayable",
      "type": "function"
    },
    {
      "constant": false,
      "inputs": [
        {
          "name": "adminAddress",
          "type": "address"
        }
      ],
      "name": "removeAdmin",
      "outputs": [],
      "payable": false,
      "stateMutability": "nonpayable",
      "type": "function"
    },
    {
      "constant": false,
      "inputs": [
        {
          "name": "doctorAddress",
          "type": "address"
        }
      ],
      "name": "addDoctor",
      "outputs": [],
      "payable": false,
      "stateMutability": "nonpayable",
      "type": "function"
    },
    {
      "constant": false,
      "inputs": [
        {
          "name": "doctorAddress",
          "type": "address"
        }
      ],
      "name": "removeDoctor",
      "outputs": [],
      "payable": false,
      "stateMutability": "nonpayable",
      "type": "function"
    },
    {
      "constant": false,
      "inputs": [
        {
          "name": "patientAddress",
          "type": "address"
        }
      ],
      "name": "addPatient",
      "outputs": [],
      "payable": false,
      "stateMutability": "nonpayable",
      "type": "function"
    },
    {
      "constant": true,
      "inputs": [],
      "name": "getPrivileges",
      "outputs": [
        {
          "name": "",
          "type": "string"
        }
      ],
      "payable": false,
      "stateMutability": "view",
      "type": "function"
    }
  ],
  "bytecode": "0x608060405234801561001057600080fd5b506001600260003373ffffffffffffffffffffffffffffffffffffffff1673ffffffffffffffffffffffffffffffffffffffff16815260200190815260200160002060006101000a81548160ff021916908315150217905550610b87806100786000396000f3fe608060405260043610610083576000357c0100000000000000000000000000000000000000000000000000000000900463ffffffff1680631785f53c14610088578063357b39e1146100b15780634780468f146100dc5780636d263ceb14610105578063704802751461012e57806375829def1461015757806398fc90e914610180575b600080fd5b34801561009457600080fd5b506100af60048036036100aa919081019061099d565b6101a9565b005b3480156100bd57600080fd5b506100c6610299565b6040516100d39190610a6a565b60405180910390f35b3480156100e857600080fd5b5061010360048036036100fe919081019061099d565b610483565b005b34801561011157600080fd5b5061012c6004803603610127919081019061099d565b610572565b005b34801561013a57600080fd5b506101556004803603610150919081019061099d565b610661565b005b34801561016357600080fd5b5061017e6004803603610179919081019061099d565b610751565b005b34801561018c57600080fd5b506101a760048036036101a2919081019061099d565b610899565b005b60011515600260003373ffffffffffffffffffffffffffffffffffffffff1673ffffffffffffffffffffffffffffffffffffffff16815260200190815260200160002060009054906101000a900460ff16151514151561023e576040517f08c379a000000000000000000000000000000000000000000000000000000000815260040161023590610aac565b60405180910390fd5b6000600260008373ffffffffffffffffffffffffffffffffffffffff1673ffffffffffffffffffffffffffffffffffffffff16815260200190815260200160002060006101000a81548160ff02191690831515021790555050565b60606000803373ffffffffffffffffffffffffffffffffffffffff1673ffffffffffffffffffffffffffffffffffffffff16815260200190815260200160002060009054906101000a900460ff1615610329576040805190810160405280601181526020017f596f752061726520612070617469656e740000000000000000000000000000008152509050610480565b600160003373ffffffffffffffffffffffffffffffffffffffff1673ffffffffffffffffffffffffffffffffffffffff16815260200190815260200160002060009054906101000a900460ff16156103b8576040805190810160405280601081526020017f596f7520617265206120646f63746f72000000000000000000000000000000008152509050610480565b600260003373ffffffffffffffffffffffffffffffffffffffff1673ffffffffffffffffffffffffffffffffffffffff16815260200190815260200160002060009054906101000a900460ff1615610447576040805190810160405280600f81526020017f596f752061726520612061646d696e00000000000000000000000000000000008152509050610480565b6040805190810160405280600f81526020017f596f7520617265206e6f7468696e67000000000000000000000000000000000081525090505b90565b60011515600260003373ffffffffffffffffffffffffffffffffffffffff1673ffffffffffffffffffffffffffffffffffffffff16815260200190815260200160002060009054906101000a900460ff161515141515610518576040517f08c379a000000000000000000000000000000000000000000000000000000000815260040161050f90610aac565b60405180910390fd5b60018060008373ffffffffffffffffffffffffffffffffffffffff1673ffffffffffffffffffffffffffffffffffffffff16815260200190815260200160002060006101000a81548160ff02191690831515021790555050565b60011515600160003373ffffffffffffffffffffffffffffffffffffffff1673ffffffffffffffffffffffffffffffffffffffff16815260200190815260200160002060009054906101000a900460ff161515141515610607576040517f08c379a00000000000000000000000000000000000000000000000000000000081526004016105fe90610a8c565b60405180910390fd5b60016000808373ffffffffffffffffffffffffffffffffffffffff1673ffffffffffffffffffffffffffffffffffffffff16815260200190815260200160002060006101000a81548160ff02191690831515021790555050565b60011515600260003373ffffffffffffffffffffffffffffffffffffffff1673ffffffffffffffffffffffffffffffffffffffff16815260200190815260200160002060009054906101000a900460ff1615151415156106f6576040517f08c379a00000000000000000000000000000000000000000000000000000000081526004016106ed90610aac565b60405180910390fd5b6001600260008373ffffffffffffffffffffffffffffffffffffffff1673ffffffffffffffffffffffffffffffffffffffff16815260200190815260200160002060006101000a81548160ff02191690831515021790555050565b60011515600260003373ffffffffffffffffffffffffffffffffffffffff1673ffffffffffffffffffffffffffffffffffffffff16815260200190815260200160002060009054906101000a900460ff1615151415156107e6576040517f08c379a00000000000000000000000000000000000000000000000000000000081526004016107dd90610aac565b60405180910390fd5b6001600260008373ffffffffffffffffffffffffffffffffffffffff1673ffffffffffffffffffffffffffffffffffffffff16815260200190815260200160002060006101000a81548160ff0219169083151502179055506000600260003373ffffffffffffffffffffffffffffffffffffffff1673ffffffffffffffffffffffffffffffffffffffff16815260200190815260200160002060006101000a81548160ff02191690831515021790555050565b60011515600260003373ffffffffffffffffffffffffffffffffffffffff1673ffffffffffffffffffffffffffffffffffffffff16815260200190815260200160002060009054906101000a900460ff16151514151561092e576040517f08c379a000000000000000000000000000000000000000000000000000000000815260040161092590610aac565b60405180910390fd5b6000600160008373ffffffffffffffffffffffffffffffffffffffff1673ffffffffffffffffffffffffffffffffffffffff16815260200190815260200160002060006101000a81548160ff02191690831515021790555050565b60006109958235610af7565b905092915050565b6000602082840312156109af57600080fd5b60006109bd84828501610989565b91505092915050565b60006109d182610acc565b8084526109e5816020860160208601610b09565b6109ee81610b3c565b602085010191505092915050565b6000601b82527f4d696e696d756d2050726976696c656765733a20446f63746f727300000000006020830152604082019050919050565b6000601982527f4d696e696d756d2050726976696c656765733a2041646d696e000000000000006020830152604082019050919050565b60006020820190508181036000830152610a8481846109c6565b905092915050565b60006020820190508181036000830152610aa5816109fc565b9050919050565b60006020820190508181036000830152610ac581610a33565b9050919050565b600081519050919050565b600073ffffffffffffffffffffffffffffffffffffffff82169050919050565b6000610b0282610ad7565b9050919050565b60005b83811015610b27578082015181840152602081019050610b0c565b83811115610b36576000848401525b50505050565b6000601f19601f830116905091905056fea265627a7a72305820b2a0953231b5ffaab49d0b2b309c6b1197d5004d3072312a2b559e31171f67c66c6578706572696d656e74616cf50037",
  "source": "pragma solidity ^0.5;\npragma experimental ABIEncoderV2;\n\ncontract Privileges {\n\n    mapping (address => bool) isPatient;\n    mapping (address => bool) isDoctor;\n    mapping (address => bool) isAdmin;\n\n    //Makes the creator of the contract an admim\n    constructor() public {\n        isAdmin[msg.sender] = true;\n    }\n\n    //Modifier that requires the sender to be a patient\n    modifier requirePatient(){\n        require(\n            isPatient[msg.sender] == true,\n            \"Minimum Privileges: Patient\"\n        );\n        _;\n    }\n\n    //Modifier that requires the sender to be a doctor\n    modifier requireDoctor(){\n        require(\n            isDoctor[msg.sender] == true,\n            \"Minimum Privileges: Doctors\"\n        );\n        _;\n    }\n\n    //Modifier that requires the sender to be an admin\n    modifier requireAdmin(){\n        require(\n            isAdmin[msg.sender] == true,\n            \"Minimum Privileges: Admin\"\n        );\n        _;\n    }\n\n    modifier editPatientsRecords(address patientsAddress){\n        if(isDoctor[msg.sender]){\n            if(isPatient[patientsAddress]){\n                _;\n            }\n        }\n    }\n\n    //Transfers the admin privileges to another address\n    function transferAdmin(address adminAddress) public requireAdmin{\n        isAdmin[adminAddress] = true;\n        isAdmin[msg.sender] = false;\n    }\n\n    function addAdmin(address adminAddress) public requireAdmin{\n        isAdmin[adminAddress] = true;\n    }\n\n    function removeAdmin(address adminAddress) public requireAdmin{\n        isAdmin[adminAddress] = false;\n    }\n\n    //Adds a new doctor to the contract\n    function addDoctor(address doctorAddress) public requireAdmin{\n        isDoctor[doctorAddress] = true;\n    }\n\n    //Remove a doctor from the contract\n    function removeDoctor(address doctorAddress) public requireAdmin{\n        isDoctor[doctorAddress] = false;\n    }\n\n    //Add a new patient to the contract\n    function addPatient(address patientAddress) public requireDoctor{\n        isPatient[patientAddress] = true;\n    }\n\n    function getPrivileges() public view returns (string memory){\n        \n        if(isPatient[msg.sender]){\n            return \"You are a patient\";\n        }\n        \n        if (isDoctor[msg.sender]){\n            return \"You are a doctor\";\n        }\n        \n        if (isAdmin[msg.sender]){\n            return \"You are a admin\";\n        }else{\n            return \"You are nothing\";\n        }\n    }\n}",
  "sourcePath": "/Users/jordan/Documents/Development/Projects/Ethereum-Blood-Test/Truffle-Contract/contracts/Privileges.sol",
  "compiler": {
    "name": "solc",
    "version": "0.5.0+commit.1d4f565a.Emscripten.clang"
  },
  "schemaVersion": "3.0.3",
  "updatedAt": "2019-05-01T09:51:17.298Z",
  "devdoc": {
    "methods": {}
  },
  "userdoc": {
    "methods": {}
  }
}